S00C000052544F532E73726563D0
S113000045C0000061C000005FC000005DC000008A
S11300105BC0000059C0000057C0000055C000007C
S113002053C0000051C000004FC000004DC000008C
S11300300C941C0D49C0000047C0000045C00000DE
S113004043C0000041C000009AC200003DC000004F
S11300503BC0000039C0000037C0000035C00000BC
S113006033C0000031C000002FC000002DC00000CC
S11300702BC0000029C00000B2C2000025C000004F
S113008023C0000021C000001FC0000011241FBEB7
S1130090CFEFD0E1DEBFCDBF11E0A0E0B1E0EEE7ED
S11300A0F9E200E00BBF02C007900D92AA32B1073B
S11300B0D9F729E0AAE2B1E001C01D92A13EB2073E
S11300C0E1F7F7D30C94BD149BCFFC01680F791FA3
S11300D08FEF9FEFB8E0A0E012C0219182272B2F71
S11300E03A2FAC014170552796958795452B21F001
S11300F041E0842740EA94272150310991F7E6171B
S1130100F70759F70895CF93DF93FC01EB01808142
S113011088838181898382E08A838381DA01A80FBD
S1130120B11D8C918B838381FA01E80FF11D8181CC
S11301308C8365E070E0CE01C8DF9E838D83DF9100
S1130140CF910895CF93DF93DC01EB018C918883E9
S113015011968C911197898313969C9182E08A83DE
S1130160E92FF0E0EE0FFF1FE40FF51F81818B8371
S113017080818C8365E070E0CE01A7DF9E838D8350
S1130180DF91CF910895CF93DF93FC01EB01808140
S113019088838181898382818A8383818B8384811B
S11301A08C8385818D8366E070E0CE018EDF9F8332
S11301B08E83DF91CF910895CF93DF93FC01EB0100
S11301C0808188838181898382818A8383818B83EF
S11301D094819C8395819D8396819E8327812F831F
S11301E090859887E82FF0E0EE0FFF1FE40FF51FCE
S11301F0892F90E0922B9183808369E070E0CE0197
S113020064DF9A878987DF91CF910895CF93DF9335
S1130210FC01EB01808188838181898382818A83C7
S113022083818B8384818C8385818D8366E070E0F8
S1130230CE014BDF9F838E83DF91CF910895CF93BF
S1130240DF93EB01488381E889832A8363E070E0CC
S1130250CE013BDF9C838B83DF91CF910895DC013A
S1130260FB018C91808311968C9111978183129656
S11302708C911297828313962C91139730E0322F2E
S113028022273483238314968C91282B348323834D
S11302900895CF93DF93E901888383E089837627E8
S11302A0672776277B836A831C824D8366E070E030
S11302B0C9010BDF9F838E83DF91CF910895CF9384
S11302C0DF93E901888386E0898376276727762789
S11302D07B836A835427452754275D834C8366E0D8
S11302E070E0C901F2DE9F838E83DF91CF91089580
S11302F01F93CF93DF93EC01CB01142FFE01EA5738
S1130300FF4F71836083642F24D1882371F0FE0131
S1130310EB57FF4F1083319710823497118210826C
S1130320CE57DF4F1982188204C0CA57DF4F198293
S11303301882DF91CF911F9108950C940B0B0895AF
S1130340FC01E058FF4F20812F5F2F7719F41182B1
S1130350108221E030E0FC01EE57FF4F40815181D3
S11303602417350789F0DC01A058BF4FED91FC91AB
S11303701197E80FF91F61832D933C93FC01EC570F
S1130380FF4F80818F5F80830895AF92BF92CF9299
S1130390DF92EF92FF920F931F93CF938C016B0127
S11303A07A01DC01AB57BF4FFC01EA57FF4F6C9158
S11303B080819181DBD0892BD1F01E141F04BCF401
S11303C0C0E0580185E8A80EB11C0A571F4FF6017A
S11303D0EC0FF11D4081F5016081F801808191816C
S11303E085D0CF5F2C2F30E02E153F0584F3CF91BD
S11303F01F910F91FF90EF90DF90CF90BF90AF903F
S11304000895FC01EE57FF4F2081318132974081DE
S1130410518142175307E9F02F5F3F4FFC01E20F70
S1130420F31F40812F773327FC01EE57FF4F3183B1
S113043020833296608170E02617370761F4329783
S11304401182108232971182108234961082842F86
S113045008958FEF0895842F0895DC01A058BF4FAD
S1130460FC01EE57FF4F8C919081891B8F77089583
S1130470FC01EE57FF4F11821082329711821082D5
S1130480349610820895FC01108211821282138224
S1130490148215821682178290932B0180932A016D
S11304A00895CF93DF9380912A0190912B01892B9A
S11304B051F488E090E00E940B0BEC01E4DFD09350
S11304C02B01C0932A0180912A0190912B01DF9185
S11304D0CF91089550E0440F551F840F951FFC01E0
S11304E07183608308950C940B0B0895262F30E0DC
S11304F0220F331F820F931FDC018D919C91009773
S113050041F0642FDC01ED91FC910680F781E02D30
S11305100995089570E0660F771F860F971FDC0119
S11305208D919C91009739F0DC01ED91FC91019043
S1130530F081E02D09950895E62FF0E0EE0FFF1FFE
S1130540E80FF91F80819181892B11F05583448331
S1130550089570E0660F771FFC01E60FF71F81E036
S113056020813181232B09F480E0089570E0660F27
S1130570771F860F971FFC018081918108951F9238
S11305800F920FB60F9211240BB60F922F933F9335
S11305904F935F936F937F938F939F93AF93BF9387
S11305A0EF93FF937EDF6CB170E0DC011496ED9164
S11305B0FC91159780E00995FF91EF91BF91AF9160
S11305C09F918F917F916F915F914F913F912F9167
S11305D00F900BBE0F900FBE0F901F9018951F9297
S11305E00F920FB60F9211240BB60F922F933F93D5
S11305F04F935F936F937F938F939F93AF93BF9327
S1130600EF93FF934EDF60919C0070E0DC0116963F
S1130610ED91FC91179781E00995FF91EF91BF91BE
S1130620AF919F918F917F916F915F914F913F9186
S11306302F910F900BBE0F900FBE0F901F90189527
S11306400895CF93DF93EC0110929B0088E9809387
S11306509A0086E080939D001092980087E680932C
S1130660990081E00E94D30E9D838C8381E00E94D7
S1130670D30E9B838A83DF91CF91089524E031E0E8
S1130680FC013183208320912C0130912D01232BF7
S113069021F490932D0180932C010895BCC70895F3
S11306A01F93CF93DF93EC01162F20E044E650E034
S11306B060E070E08A819B810E94EB0E813081F4BE
S11306C0EBE9F0E0908195FFFDCF10939C0020E0D2
S11306D040E050E060E070E08A819B810E94410E1E
S11306E0DF91CF911F910895DBCF08950F931F934E
S11306F0CF93DF938C01EB0120E044E650E060E00F
S113070070E0FC01848195810E94EB0E813099F4A4
S11307106881662331F02196C801C2DF69916111B5
S1130720FBCF20E040E050E060E070E0F80184811D
S113073095810E94410EDF91CF911F910F910895F1
S1130740D5CF0895CF93DF93EC0188E98AB986E089
S1130750809395001092900087E689B981E00E9409
S1130760D30E9D838C8381E00E94D30E9B838A8366
S1130770DF91CF91089520E131E0FC0131832083A2
S113078020912E0130912F01232B21F490932F01DE
S113079080932E0108953FC708951F93CF93DF934D
S11307A0EC01162F20E044E650E060E070E08A811E
S11307B09B810E94EB0E813061F45D9BFECF1CB9DE
S11307C020E040E050E060E070E08A819B810E947C
S11307D0410EDF91CF911F910895DFCF08950F93BC
S11307E01F93CF93DF938C01EB0120E044E650E0AC
S11307F060E070E0FC01848195810E94EB0E813001
S113080099F46881662331F02196C801C6DF6991A5
S11308106111FBCF20E040E050E060E070E0F801BF
S1130820848195810E94410EDF91CF911F910F9198
S11308300895D5CF08958091A1019091A20180CD12
S113084008958091A3019091A4017ACD0895CF9346
S1130850DF9388E090E047DEEC0115DED093A6013B
S1130860C093A50186E090E096DFEC0184DF40E0D0
S1130870BE018091A5019091A6012CDE86E090E056
S11308800DDFEC01FBDE41E0BE018091A5019091FA
S1130890A60120DE60E08091A5019091A6013ADED8
S11308A061E08091A5019091A60134DEDF91CF91A2
S11308B00895CF92DF92EF92FF920F93CF93DF933D
S11308C0F8948FEF8093640080936500E1E6F0E094
S11308D08083889A82B913B887BB88BB90EE9083D3
S11308E08093620010BCB3DF4BE154E060E0809180
S11308F0A5019091A60120DE41E254E061E08091DF
S1130900A5019091A60118DE88E890E016DD6C013F
S11309106091A5017091A60140E0EADC88E890E0CE
S11309200CDDEC016091A5017091A60141E0E0DCD1
S1130930E1EAF1E0D182C082D383C28378949FE05C
S113094088E10FB6F894A89581BD0FBE91BDE12C46
S1130950F12C02E096014EE551E068E171E08CEB88
S113096099E00E9418109E0140EF50E06EE171E0A2
S113097084E496E00E9418100E94161180E090E032
S1130980DF91CF910F91FF90EF90DF90CF9008957A
S1130990AB014250510921E04330510508F420E0F5
S11309A0FC01E60FF71F8081882309F459C0EFE6A4
S11309B0F1E081E090E0062E02C0880F991F0A94AE
S11309C0E2F79081892B8083222331F128B381E0DF
S11309D090E0062E02C0880F991F0A94E2F78095D2
S11309E0822388BB6530710551F481E080937201E4
S11309F081E090E0909362018093610108956630F4
S1130A00710551F481E08093710181E090E090934D
S1130A1062018093610108956230710539F4109286
S1130A20300110924E0110924D010895633071050A
S1130A3051F481E08093300181E090E090934E0185
S1130A4080934D01089564307105C1F582E080936F
S1130A50300182E090E090934E0180934D0108951F
S1130A60EFE6F1E081E090E0062E02C0880F991FC6
S1130A700A94E2F780959081892380832223F1F000
S1130A8028B381E090E0062E02C0880F991F0A94D3
S1130A90E2F7822B88BB6530710539F4109272013C
S1130AA0109262011092610108956630710531F46B
S1130AB01092710110926201109261010895009BDD
S1130AC006C0EFE6F1E080818068808307C000996A
S1130AD005C0EFE6F1E080818F778083019B06C03B
S1130AE0EFE6F1E081818160818307C0019905C04F
S1130AF0EFE6F1E081818E7F8183029B06C0EFE601
S1130B00F1E081818260818307C0029905C0EFE62C
S1130B10F1E081818D7F8183039B06C0EFE6F1E0E4
S1130B2081818460818307C0039905C0EFE6F1E009
S1130B3081818B7F818304990AC0049908C081E074
S1130B4080933101E2E6F0E08081806480838091CB
S1130B505D0190915E018130910569F4E2E6F0E077
S1130B6080818F7D808380913101811110C08081CB
S1130B708F7B80830CC0892B51F410923101E2E603
S1130B80F0E08081806480838081806280838091B2
S1130B907201813009F456C090917101913009F0CD
S1130BA043C05FC0C598EFE6F1E081818F7E886025
S1130BB081830AC0232B41F4813009F4C598EFE600
S1130BC0F1E081818861818380915F01909160016E
S1130BD08330910569F4EFE6F1E081818F7D8064D3
S1130BE0818380917101813009F04DC0C69A0895C6
S1130BF08430910561F480917101813009F4C698C3
S1130C00EFE6F1E081818F7B80628183089505970F
S1130C10D1F580917101813009F4C698EFE6F1E0D5
S1130C208181806681830895EFE6F1E081818867A0
S1130C3081830895EFE6F1E08181877F806181837C
S1130C40C59AC2CF20915F013091600121303105F6
S1130C5081F4F0CFEFE6F1E08181877F80618183C9
S1130C60B3CF20915F01309160012130310531F41F
S1130C70F1CF2230310509F09DCF94CF22303105D8
S1130C8009F098CF90CF0895CF93DF93CDB7DEB717
S1130C906E970FB6F894DEBF0FBECDBF7C011092E5
S1130CA04A0110924901612C712CA12CB12C6E01C6
S1130CB088E0C80ED11C07E411E0412C6894992403
S1130CC091F855245394611013C0711019C39E01F7
S1130CD0255F3F4F452D6EE271E0852DDADA48E05D
S1130CE050E0BE01655F7F4FC7014FDB752C08C321
S1130CF091E0691213C0711009C39E01255F3F4F33
S1130D00452D65E070E083E0C4DA48E050E0BE01C0
S1130D10655F7F4FC70139DB752CF8C2E2E06E12C4
S1130D2013C07110F3C29E01255F3F4F452D64E04F
S1130D3070E083E0AEDA48E050E0BE01655F7F4FCB
S1130D40C70123DB752CE2C2F3E06F12DFC271101E
S1130D50DDC29E01255F3F4F452D6DE271E0892D77
S1130D6098DA48E050E0BE01655F7F4FC7010DDBB4
S1130D70752CCCC2CE0101965C01C70142DBF501A2
S1130D8081935F01EC15FD05C1F7BE016D5E7F4FD8
S1130D90CE01019664DAAE88BF88F801B582A482D8
S1130DA013821282C70164DBC70157DB873058F412
S1130DB0652C742C40C0C70150DB873008F43BC05D
S1130DC0F1E06F1238C0CE0101963C01C70119DB76
S1130DD0F30181933F01EC15FD05C1F78D81877007
S1130DE0813061F490923001C70142DB809130017F
S1130DF090E0F80197838683892C90C2823061F455
S1130E0040923001C70134DB8091300190E0F80159
S1130E1097838683842C82C2843009F07AC25092EC
S1130E203001C70125DB8091300190E0F801978300
S1130E308683852C73C2C70110DB873070F1F2E022
S1130E406F122BC0CE0101963C01C701DADAF3011F
S1130E5081933F01EC15FD05C1F78C8190E0982F3B
S1130E6088272D81822BF8019187808764E670E0C2
S1130E700E948D141B01220C331C220C331C260EE1
S1130E80371E33862286C701E8DA873070F40F2EC6
S1130E90F3E06F2EF02D742C48C0C701DEDA8730E2
S1130EA008F443C0F3E06F1240C08E010F5F1F4F80
S1130EB0CE0108969B8F8A8FC701A3DAF80181932C
S1130EC08F018A8D9B8DE817F907B1F7BE016D5E1E
S1130ED07F4FCE010196C3D90E891F891093580103
S1130EE000935701C701C4DA8CE291E00E947412A6
S1130EF084E690E00E9474120FB6F894A89581B528
S1130F00886181BD11BC0FBE512C412C0F2EF7E41A
S1130F106F2EF1E07F2EF02D6894992491F8FE0154
S1130F203996FD8FEC8F670105C08CE291E00E9439
S1130F307412C9CEC4DDF3018285938582159305AD
S1130F4021F00F2EF3E05F2EF02D809130018812F6
S1130F50592CF301E088F188E016F10609F0A6C1E6
S1130F60048115810A151B0509F0A6C1511011C091
S1130F709E01255F3F4F41E061E070E081E089D947
S1130F8048E050E0BE01655F7F4FC601FED95801BD
S1130F902BC0F4E05F1211C09E01255F3F4F41E07A
S1130FA061E070E0892D75D948E050E0BE01655FCD
S1130FB07F4FC601EAD958012DC0580185E0581267
S1130FC013C0F301408951899E01255F3F4F6DE2B3
S1130FD071E0892D74D948E050E0BE01655F7F4F10
S1130FE0C601D3D9512C5BC0F1E05F1213C0F301E9
S1130FF0448155819E01255F3F4F6EE271E081E09F
S11310005ED948E050E0BE01655F7F4FC601BDD99F
S1131010512C64C0F2E05F1242C0809130018130F3
S1131020A1F49E01255F3F4F44E050E065E070E08D
S113103083E045D948E050E0BE01655F7F4FC601BB
S1131040A4D9512C8824839449C0811113C09E01D2
S1131050255F3F4F42E050E065E070E083E02FD928
S113106048E050E0BE01655F7F4FC6018ED9512C28
S1131070812C34C0823091F59E01255F3F4F40E0C2
S113108050E065E070E083E01AD948E050E0BE012A
S1131090655F7F4FC60179D9512C892C1FC083E02D
S11310A058121CC0F3018285938565E070E00E94AC
S11310B08D14F4E6F69FA001F79F500D11249E01B4
S11310C0255F3F4F64E070E083E0F9D848E050E0EA
S11310D0BE01655F7F4FC60158D9512CC601BDD9E9
S11310E08230B0F0411014C0C6018BD98983C60187
S11310F088D98A839981913009F41DC1923009F409
S1131100DFC0933009F01DC132C1863009F41DC11E
S113111081E048123BC09E8D933009F0DCC0C601CB
S11311209CD9853008F4D4C08E010D5F1F4FC601D1
S113113068D9F80181938F018A8D9B8DE817F9078F
S1131140B1F7BE016D5E7F4FCE01019688D88E89BE
S11311509F89F301938382836894552452F8412C28
S1131160FFC0C6017AD9863008F4B9C08E010D5F7C
S11311701F4FC60146D9F80181938F018C8D9D8D37
S1131180E817F907B1F7ABC093E09E8FE2E04E1287
S113119043C0FE8DF33009F0ACC0C6015ED9853082
S11311A008F4A2C08E010D5F1F4FC6012AD9F801B1
S11311B081938F018A8D9B8DE817F907B1F794C04D
S11311C0C6014BD9863068F08E010D5F1F4FC601F2
S11311D018D9F80181938F018C8D9D8DE817F9073B
S11311E0B1F78C81843009F088C08D8190E0982F0C
S11311F088272E81822BF3019187808764E670E033
S11312000E948D141B01220C331C220C331C260E4D
S1131210371E3386228671C0F3E04F1241C08E8D93
S11312208330F9F4C60119D98530D0F18E010D5FF0
S11312301F4FC601E6D8F80181938F018A8D9B8DDB
S1131240E817F907B1F7BE016D5E7F4FCE01019635
S113125006D88E899F89F30197878687512C412C64
S11312601FC0FE8DF630E1F4C601F7D8863068F071
S11312708E010D5F1F4FC601C4D8F80181938F0101
S11312808C8D9D8DE817F907B1F78D8190E0982F2B
S113129088272E81822BF301918B808B512C412C3A
S11312A08CE291E00E947412870144CEF301048120
S11312B015810A151B05D1F15801552453947ECE8E
S11312C0833009F449C00F2EF3E04F2EF02D1DCFCB
S11312D04424439445C0FE8DF63011F742CF86E096
S11312E08E8F512C412CDCCF93E09E8F512C412CBE
S11312F0D7CFEE8DE630A1F663CF512C412CD0CF61
S1131300C701ABD8873008F035CD55CDC701A5D876
S113131052CDC701A2D8652C742CBFCDC7019DD86E
S1131320873008F08FCD692C742CB7CD0F2EF5E0E3
S11313305F2EF02D43CE833009F4F1CE4424439440
S1131340E4CE833009F0E1CE1FCFF1E04F1609F46B
S113135008CF86E08E8F1ACF0F2EF3E04F2EF02D9C
S113136092E0491609F419CFE3E0EE8F55CF8330AC
S113137009F413CF492CC9CECF93DF93CDB7DEB791
S11313802A970FB6F894DEBF0FBECDBF7C01109232
S11313906F0184EF91E09093480180934701B12C51
S11313A0CC24C3942E018CE0480E511C05E610E0B9
S11313B0DD24DA947D2C312C0F2EF5E02F2EF02D28
S11313C04E0199E0890E911C6894662462F8B1106C
S11313D044C0C70142D8823008F40FC1F801D0825A
S11313E0C7010FD88983F8011082D082C70109D8B8
S11313F08A83F80110828981813069F0C0923201B8
S1131400C3B8E7E4F1E082859385019693878287E8
S1131410C7012ED813B88A81813021F1843009F4B0
S11314204CC0853009F474C0803109F4AAC02C2D55
S11314304C2D6BE771E0CE0101960E941F0145E03F
S113144050E06BE771E0C7010E94C501C092320110
S113145063B8C7010DD813B8D0C0F1E0BF12CDC036
S1131460AF1228C0C7010E942D02863008F4B8C00C
S1131470CE0103965C01F8017082C7010E9401024B
S1131480F50181935F01F8011082A814B90499F75A
S11314904FE651E06AE971E0CE0101960E948300B3
S11314A047E050E06AE971E0C7010E94C501AC2C35
S11314B0B32CA3C0F4E0AF1228C0C7010E942D02D0
S11314C0863008F490C0CE0103965C01F801708266
S11314D0C7010E940102F50181935F01F8011082A6
S11314E0A814B90499F747E451E06BE871E0CE0120
S11314F001960E94A20047E050E06BE871E0C7014A
S11315000E94C501A62CB32C78C0F5E0AF1236C0FA
S1131510C7010E942D02863008F468C0CE010396EC
S11315205C01F8017082C7010E940102F5018193F8
S11315305F01F8011082A814B90499F762E971E017
S1131540CE0101960E94C300E2E9F1E0628170E0FD
S1131550762F66278381682BDB01AD5CBE4F8481C7
S11315608C9383E391E014DA48E050E062E971E09F
S1131570C7010E94C501A22CB32C3FC0F0E1AF12F9
S11315803CC0C7010E942D02893098F1CE01039618
S11315905C01F8017082C7010E940102F501819388
S11315A05F01F8011082A414B50499F747E451E0EF
S11315B060E871E0CE0101960E94DC0063E771E00F
S11315C0CE0101960E94060148E050E063E771E015
S11315D0C7010E94C5016894AA24A4F8B32C0DC0C5
S11315E0AC2CBC2C0AC0A62CBC2C07C0A22CBC2C36
S11315F004C06894AA24A4F8BC2C80915B01909147
S11316005C01019729F4A89510925C0110925B018A
S113161056DADDCE0895CF93DF93EC012FD6809177
S1131620A7019091A801892B31F48CEA91E0909361
S1131630A8018093A7012091A9013091AA01CE01AC
S1131640820F931F8F3C47E0940770F428173907E3
S113165070F4C091A701D091A801C20FD31F909339
S1131660AA018093A90105C0C0E0D0E002C0C0E097
S1131670D0E0C1D6CE01DF91CF9108950895FC0149
S11316800396928381832FEF3FEF348323839683E2
S113169085839087878310820895FC0111861086C4
S11316A00895CF93DF939C01FB01DC011196CD914A
S11316B0DC911297D383C2838C819D81958384832B
S11316C08C819D81DC0113967C936E9312977D83AC
S11316D06C8331872087F90180818F5F8083DF915C
S11316E0CF910895CF93DF93EB01488159814F3F08
S11316F02FEF520721F4FC01A781B0850DC0DC0156
S1131700139601C0DF011296ED91FC91139720818D
S1131710318142175307B0F71296ED91FC9113975C
S1131720FB83EA83D583C483BD83AC831396DC93A4
S1131730CE93129799878887FC0120812F5F20839D
S1131740DF91CF910895CF93DF93FC01A085B185FC
S1131750C281D381848195819D838C83C481D58109
S1131760828193819B838A831196CD91DC91129718
S1131770CE17DF0731F48C819D8112969C938E9352
S11317801197118610868C9181508C93DF91CF91A3
S1131790089531E1FC013083319722E220833197AF
S11317A0A3E3A083319760833197708331971082CC
S11317B0319760E8608331971082319762E06083EB
S11317C0319763E06083319764E06083319765E02B
S11317D06083319766E06083319767E06083319777
S11317E068E06083319769E06083319760E16083EA
S11317F031973083319732E13083319733E130834D
S1131800319734E13083319735E13083319736E1D4
S11318103083319737E13083319738E13083319722
S113182039E13083319730E23083319731E23083CC
S113183031972083319723E2208331974083319776
S11318405083319726E22083319727E22083319712
S113185028E22083319729E22083319720E32083F3
S1131860319721E32083869708951BBC89EF8ABDB5
S11318708BE08EBD87B7806187BFA091DF09B091EF
S1131880E009CD91CDBFDD91DEBFFF91EF91DF91F6
S1131890CF91BF91AF919F918F917F916F915F9104
S11318A04F913F912F911F910F91FF90EF90DF90F7
S11318B0CF90BF90AF909F908F907F906F905F90EC
S11318C04F903F902F901F900F900FBE0F90089550
S11318D081E008950F920FB6F8940F921F9211248D
S11318E02F923F924F925F926F927F928F929F922C
S11318F0AF92BF92CF92DF92EF92FF920F931F931A
S11319002F933F934F935F936F937F938F939F9303
S1131910AF93BF93CF93DF93EF93FF93A091DF092E
S1131920B091E0090DB60D920EB60D9224D6A09199
S1131930DF09B091E009CD91CDBFDD91DEBFFF910C
S1131940EF91DF91CF91BF91AF919F918F917F9153
S11319506F915F914F913F912F911F910F91FF9044
S1131960EF90DF90CF90BF90AF909F908F907F903B
S11319706F905F904F903F902F901F900F900FBEED
S11319800F9008950F920FB6F8940F921F9211249E
S11319902F923F924F925F926F927F928F929F927B
S11319A0AF92BF92CF92DF92EF92FF920F931F9369
S11319B02F933F934F935F936F937F938F939F9353
S11319C0AF93BF93CF93DF93EF93FF93A091DF097E
S11319D0B091E0090DB60D920EB60D9255D4811159
S11319E0CAD5A091DF09B091E009CD91CDBFDD91B9
S11319F0DEBFFF91EF91DF91CF91BF91AF919F91A6
S1131A008F917F916F915F914F913F912F911F9192
S1131A100F91FF90EF90DF90CF90BF90AF909F9089
S1131A208F907F906F905F904F903F902F901F907A
S1131A300F900FBE0F900895A5DF18950F931F9375
S1131A40CF93DF93EC01042F1A8D8C8D81110BC081
S1131A5088819981892B09F041C08A819B810BD7A8
S1131A601B821A8242C0411117C0482F50E08C815A
S1131A709D817AD72C8D8C819D81820F911D9D83B0
S1131A808C832A813B818217930750F18881998145
S1131A909D838C8380E029C0482F50E08E819F81F4
S1131AA063D78C8D90E09195819591092E813F812A
S1131AB0280F391F3F832E83488159812417350706
S1131AC030F42A813B81820F931F9F838E830230DF
S1131AD049F4112349F0115080E007C080E005C0AB
S1131AE080E003C080E001C080E01F5F1A8FDF91B7
S1131AF0CF911F910F910895FC01448D4423A1F0CF
S1131B0050E026813781240F351F37832683828155
S1131B1093812817390720F08081918197838683E8
S1131B20CB016681778120C70895EF92FF920F93CE
S1131B301F93CF938C010FB6F8940F92FC01C68DBE
S1131B401C169CF48189811106C00FC0F80191898B
S1131B50911105C00AC07801F1E1EF0EF11CC70133
S1131B609BD5811122D6C15089F78FEFF801868F5A
S1131B700F900FBE0FB6F8940F92C58D1C169CF4EF
S1131B808085811106C00FC0F8019085911105C0B0
S1131B900AC07801F8E0EF0EF11CC7017DD5811170
S1131BA004D6C15089F78FEFF801858F0F900FBECF
S1131BB0CF911F910F91FF90EF900895CF93DF93F2
S1131BC0EC010FB6F8940F92488159812C8D30E0C6
S1131BD07B8D729FC001739F900D1124FA01E80F51
S1131BE0F91FFB83EA831A8E5D834C83821B930B5C
S1131BF0840F951F9F838E838FEF8D8F8E8F61113E
S1131C000AC08885882369F0CE01089645D58823C3
S1131C1041F060DE06C0CE01089631DDCE0141966A
S1131C202EDD0F900FBE81E0DF91CF9108950F93C9
S1131C301F93CF93DF93082F162F6623B1F0869F4F
S1131C40C00111244F96E7DCEC01009739F413C06E
S1131C500B8F1C8F61E0CE01B1DF0DC04F969983CD
S1131C608883F6CFD983C883F3CF8FE190E0D3DCA8
S1131C70EC01892BB9F7CE01DF91CF911F910F9120
S1131C8008959F92AF92BF92CF92DF92EF92FF920C
S1131C900F931F93CF93DF9300D000D01F92CDB743
S1131CA0DEB78C016B015D834C83A22EB12C992489
S1131CB093947C0188E0E80EF11C0FB6F8940F921F
S1131CC0F801328D938D391718F0F2E0AF1215C078
S1131CD04A2DB601C801B2DEF8019189992339F081
S1131CE0C8014196D9D4882321F0F4DD02C08111C2
S1131CF0F1DD0F900FBE81E045C0EC81FD81EF2B3B
S1131D0021F40F900FBE80E03DC0B11004C0CE019D
S1131D10019608D5B92C0F900FBEB0D20FB6F89427
S1131D200F92F801858D8F3F09F4158EF801868D89
S1131D308F3F09F4168E0F900FBEBE016C5F7F4F6C
S1131D40CE010196FAD4811119C00FB6F8940F92FE
S1131D50F801928D0F900FBE838D98130BC06C8188
S1131D607D81C70188D4C801E0DE45D38111A5CFA8
S1131D70B1DDA3CFC801D9DE3ED39FCFC801D5DEE4
S1131D803AD380E00F900F900F900F900F90DF9157
S1131D90CF911F910F91FF90EF90DF90CF90BF9064
S1131DA0AF909F900895CF93DF93482F60E081E038
S1131DB03EDFEC01009759F01B821A8219821882C7
S1131DC01E8220E040E050E060E070E05ADFCE0187
S1131DD0DF91CF9108958F929F92AF92BF92CF924D
S1131DE0DF92EF92FF920F931F93CF93DF9300D074
S1131DF000D01F92CDB7DEB78C015B015D834C83AD
S1131E00822EE12C992493946C0181E1C80ED11C9B
S1131E100FB6F8940F92F801F28CFF2061F1C6809E
S1131E20D780B501C80168DE811016C0FA94F801A4
S1131E30F28E80819181892B21F45DD5F801938301
S1131E408283F8018085882391F0C801089624D400
S1131E50882369F03FDD0BC0F801D782C6828189EF
S1131E60882329F0C801419617D4811133DD0F90DE
S1131E700FBE81E058C04C815D81452B21F40F9049
S1131E800FBE80E050C0E11004C0CE0101964AD4D8
S1131E90E92C0F900FBEF2D10FB6F8940F92F8010F
S1131EA0858D8F3F09F4158EF801968D9F3F09F4B7
S1131EB0168E0F900FBEBE016C5F7F4FCE01019650
S1131EC03CD4811124C00FB6F8940F92F801828D8E
S1131ED00F900FBE811117C080819181892B41F42D
S1131EE00FB6F8940F928281938163D40F900FBE42
S1131EF06C817D81C601BFD3C80117DE7CD28111FC
S1131F0087CFE8DC85CFC80110DE75D281CFC80148
S1131F100CDE71D20FB6F8940F92F801828D0F90F7
S1131F200FBE811175CF0F900F900F900F900F90EF
S1131F30DF91CF911F910F91FF90EF90DF90CF90A1
S1131F40BF90AF909F908F900895E091A709F09172
S1131F50A8098081811107C08FEF9FEF90937F09BB
S1131F6080937E090895E091A709F091A80905805E
S1131F70F681E02D0680F781E02D82819381909394
S1131F807F0980937E090895FF920F931F93CF9347
S1131F90DF93EC01F62E0091860910918709809158
S1131FA0DF099091E0090296CEDBCF3F8FEFD8078F
S1131FB061F4FF2051F06091DF097091E0096E5FD8
S1131FC07F4F89E899E06DDB2DC0C00FD11FE091F0
S1131FD0DF09F091E009D383C283C017D10760F40D
S1131FE06091DF097091E0098091A5099091A6099B
S1131FF06E5F7F4F77DB16C06091DF097091E00957
S11320008091A7099091A8096E5F7F4F6BDB809147
S11320107E0990917F09C817D90720F4D0937F09CE
S1132020C0937E09DF91CF911F910F91FF90089586
S11320304F925F926F927F928F929F92AF92BF92D4
S1132040CF92DF92EF92FF920F93CF93DF934C01E5
S11320506B015A012901CA01DEDA3C01892B09F41A
S1132060D4C088E290E0D7DAEC01892B71F0788E45
S11320706F8A81E0A81AB1086A0C7B1CD6018C9186
S1132080898F8C91811104C017C0C301F7DABDC0D8
S1132090AE01465E5F4FF6013196B8E0CB0ED11C1F
S11320A0CF012191DA012D93AD01DC018C918823BC
S11320B019F0EC15FD05A1F718A2043008F003E0AF
S11320C00E8B09A31AA26E01B2E0CB0ED11CC6017D
S11320D0E4DACE010C96E1DAD987C88784E090E08F
S11320E0801B91099D878C87DB8BCA8B1BA21CA24A
S11320F01DA21EA21FA2A201B401C3014ADB99833F
S11321008883E114F10419F0F701D183C0830FB679
S1132110F8940F92809188098F5F80938809809149
S1132120DF099091E009892B89F5D093E009C093E8
S1132130DF0980918809813009F038C08BEB99E080
S11321409EDA84EC99E09BDA8DEC99E098DA86EDDE
S113215099E095DA82EB99E092DA89EA99E08FDAEC
S11321608CE999E08CDA83E999E089DA89E899E0E5
S113217086DA82EB99E09093A8098093A70989EA0B
S113218099E09093A6098093A50910C080918409D1
S113219081110CC0E091DF09F091E00996898E89E4
S11321A0891720F0D093E009C093DF09809180095A
S11321B08F5F809380098E8990918509981710F418
S11321C08093850990E09C01220F331F220F331F57
S11321D0220F331F820F931FB6018554964F61DA85
S11321E00F900FBE80918409882359F0E091DF0994
S11321F0F091E00996898E89981728F46BDB81E0C9
S113220005C081E003C081E001C08FEFDF91CF9171
S11322100F91FF90EF90DF90CF90BF90AF909F9081
S11322208F907F906F905F904F900895EF92FF9200
S11322300F930F2EFCE7EF2EF9E0FF2EF02D00E0B8
S113224020E030E045E550E064E271E084E892E1AA
S1132250EFDE813079F4F8948FEF9FEF90937F094C
S113226080937E0981E080938409109287091092FB
S11322708609FBDA0F91FF90EF90089580917B0916
S11322808F5F80937B090895CF92DF92EF92FF9244
S11322900F931F93CF93DF9380917B09811195C096
S11322A0E0908609F09087098FEFE81AF80AF09217
S11322B08709E0928609E114F104B1F48091A70939
S11322C09091A8092091A5093091A6093093A809F5
S11322D02093A7099093A6098093A5098091810969
S11322E08F5F8093810931DE80917E0990917F090F
S11322F0E816F90610F4D12C50C0D12CCC24C39488
S1132300E091A709F091A8099081911107C08FEF7E
S11323109FEF90937F0980937E093FC0E091A709C6
S1132320F091A8090580F681E02DC681D7812A8124
S11323303B81E216F30628F430937F0920937E094B
S11323402CC08E010E5F1F4FC801FDD98C899D8959
S1132350892B19F0CE010C96F6D92E898091850926
S1132360821710F42093850930E0C901880F991F62
S1132370880F991F880F991F820F931FB8018554E6
S1132380964F8FD9E091DF09F091E0099E89868903
S1132390981708F4B5CFDC2CB3CFE091DF09F091A6
S11323A0E009868990E0FC01EE0FFF1FEE0FFF1F8E
S11323B0EE0FFF1F8E0F9F1FFC01E554F64F808127
S11323C0823048F0DD24D39406C0809183098F5F66
S11323D080938309D12C80918209882311F0DD2414
S11323E0D3948D2DDF91CF911F910F91FF90EF909A
S11323F0DF90CF900895DF92EF92FF920F931F9397
S1132400CF93DF930FB6F8940F9280917B0981509C
S113241080937B0980917B09811159C0809188093F
S1132420811130C057C0D7011596ED91FC911697D4
S1132430C681D781CE010C9686D98E010E5F1F4FBF
S1132440C80181D92E8980918509821710F42093BF
S1132450850930E0C901880F991F880F991F880FDB
S1132460991F820F931FB8018554964F1AD9E09192
S1132470DF09F091E0099E898689981768F0D09267
S113248082090AC0C0E0D0E00F2EFCE9EF2EF9E08B
S1132490FF2EF02DDD24D394F70180818111C3CF69
S11324A0CD2B09F052DDC0918309CC2349F0D1E052
S11324B0EBDE8111D0938209C150D1F710928309C8
S11324C080918209882329F005DA81E003C080E045
S11324D001C080E00F900FBEDF91CF911F910F914B
S11324E0FF90EF90DF900895CF93DF93EC01892B59
S11324F039F0C4DE60E0CE0147DD7DDF811101C02B
S1132500E9D9DF91CF91089503E919E00F2EFBEB90
S1132510EF2EF9E0FF2EF02D24C0B0DED801CC91CF
S11325206ADFCC23F1F00FB6F8940F92D801159618
S1132530ED91FC911697C681D781CE01029603D9FD
S113254080918809815080938809809192098150F3
S1132550809392090F900FBE8F89988D8FD8CE01EA
S11325608DD8809192098111D8CFF7018081823072
S1132570C0F3B0D9F6CF80917B09882321F081E0A4
S113258080938209089510928209A091DF09B09185
S1132590E009E091DF09F091E0092D913C918789F0
S11325A0908D8217930758F06091DF097091E009CC
S11325B08091DF099091E009675E7F4F2BD82091CD
S11325C08509822F90E0FC01EE0FFF1FEE0FFF1F25
S11325D0EE0FFF1FE80FF91FE554F64F308131115C
S11325E011C02150822F90E0FC01EE0FFF1FEE0F6F
S11325F0FF1FEE0FFF1FE80FF91FE554F64F308160
S1132600332379F3AC01440F551F440F551F440F76
S1132610551F480F591FDA01A554B64F1196ED9175
S1132620FC9112970280F381E02D1296FC93EE93B5
S113263011974254564FE417F50729F44281538108
S1132640FD0152834183FC01EE0FFF1FEE0FFF1FBC
S1132650EE0FFF1F8E0F9F1FFC01E554F64F018004
S1132660F281E02D868197819093E0098093DF09C0
S1132670209385090895CF93DF93EB012091DF091F
S11326803091E009B901645F7F4F2CD861E0CE013D
S11326907BDCDF91CF9108950F931F93CF93DF934A
S11326A0DC011596ED91FC911697C681D7818E01B8
S11326B0045F1F4FC80147D880917B0981111BC05B
S11326C00A501109C8013FD82E89809185098217C3
S11326D010F42093850930E0C901880F991F880FF1
S11326E0991F880F991F820F931FB8018554964F25
S11326F00E94510B05C0B8018CE999E00E94510B6E
S1132700E091DF09F091E0099E898689891720F418
S113271081E08093820901C080E0DF91CF911F9115
S11327200F91089520918109FC012083209186094D
S1132730309187093283218308950FB6F8940F925C
S11327404091860950918709DB012D913C912F3FDF
S1132750BFEF3B0711F1E0918109DC01FC91FE1709
S113276039F01196ED91FC9112974E175F07B8F46A
S1132770DC011196ED91FC911297DA01AE1BBF0BAF
S1132780A217B30770F4DB01E41BF50B2E0F3F1FF8
S11327902D933C93C7DF80E005C080E003C081E057
S11327A001C081E00F900FBE089581E080938209FB
S11327B008950F931F93CF93DF93FC01892B09F4A2
S11327C055C02689A091DF09B091E00956968C91F5
S11327D0281708F04BC084859585992364F0A0914F
S11327E0DF09B091E00956963C9184E090E0831BA8
S11327F091099587848730E0C901880F991F880F54
S1132800991F880F991F280F391F2554364F828529
S113281093858217930719F58F01EF012296CE0154
S11328200E94A30BE091DF09F091E0092689F801E9
S1132830268B80918509821710F42093850930E056
S1132840C901880F991F880F991F880F991F820F3C
S1132850931FBE018554964F0E94510B07C0A0914F
S1132860DF09B091E00956968C91868BDF91CF9168
S11328701F910F9108950F931F93CF93DF93FC0142
S1132880892B79F182A1815082A3268991A12917EC
S113289051F181112AC0EF018F010E5F1F4FC80152
S11328A00E94A30B29A12E8B44E050E0421B510946
S11328B05D874C8780918509821710F420938509E0
S11328C030E0C901880F991F880F991F880F991F3D
S11328D0820F931FB8018554964F0E94510B81E0DB
S11328E005C080E003C080E001C080E0DF91CF91AB
S11328F01F910F9108958091DF099091E009892B30
S113290039F0E091DF09F091E00982A18F5F82A3A1
S11329108091DF099091E009089597FB072E16F442
S1132920009406D077FD08D00BD007FC05D03EF408
S1132930909581959F4F0895709561957F4F089567
S1132940AA1BBB1B51E107C0AA1FBB1FA617B707D1
S113295010F0A61BB70B881F991F5A95A9F78095ED
S11329609095BC01CD010895FB01DC0102C00190EA
S11129700D9241505040D8F70895F894FFCFCF
S113297E0000000021032003A003740300000000E4
S113298EA20320031904ED035461736B31005461E7
S10D299E736B320049444C450000FD
S9030000FC
