S00C000052544F532E73726563D0
S113000045C0000061C000005FC000005DC000008A
S11300105BC0000059C0000057C0000055C000007C
S113002053C0000051C000004FC000004DC000008C
S11300300C94880B49C0000047C0000045C0000074
S113004043C0000041C0000097C200003DC0000052
S11300503BC0000039C0000037C0000035C00000BC
S113006033C0000031C000002FC000002DC00000CC
S11300702BC0000029C00000AFC2000025C0000052
S113008023C0000021C000001FC0000011241FBEB7
S1130090CFEFD0E1DEBFCDBF11E0A0E0B1E0E6E5F7
S11300A0F6E200E00BBF02C007900D92A033B10747
S11300B0D9F729E0A0E3B1E001C01D92A63CB20744
S11300C0E1F710D70C9429139BCFFC01680F791F1B
S11300D08FEF9FEFB8E0A0E012C0219182272B2F71
S11300E03A2FAC014170552796958795452B21F001
S11300F041E0842740EA94272150310991F7E6171B
S1130100F70759F70895CF93DF93FC01EB01808142
S113011088838181898382E08A838381DA01A80FBD
S1130120B11D8C918B838381FA01E80FF11D8181CC
S11301308C8365E070E0CE01C8DF9E838D83DF9100
S1130140CF910895CF93DF93DC01EB018C918883E9
S113015011968C911197898313969C9182E08A83DE
S1130160E92FF0E0EE0FFF1FE40FF51F81818B8371
S113017080818C8365E070E0CE01A7DF9E838D8350
S1130180DF91CF910895CF93DF93FC01EB01808140
S113019088838181898382818A8383818B8384811B
S11301A08C8385818D8366E070E0CE018EDF9F8332
S11301B08E83DF91CF910895CF93DF93FC01EB0100
S11301C0808188838181898382818A8383818B83EF
S11301D094819C8395819D8396819E8327812F831F
S11301E090859887E82FF0E0EE0FFF1FE40FF51FCE
S11301F0892F90E0922B9183808369E070E0CE0197
S113020064DF9A878987DF91CF910895CF93DF9335
S1130210FC01EB01808188838181898382818A83C7
S113022083818B8384818C8385818D8366E070E0F8
S1130230CE014BDF9F838E83DF91CF910895CF93BF
S1130240DF93EB01488381E889832A8363E070E0CC
S1130250CE013BDF9C838B83DF91CF910895DC013A
S1130260FB018C91808311968C9111978183129656
S11302708C911297828313962C91139730E0322F2E
S113028022273483238314968C91282B348323834D
S11302900895CF93DF93E901888383E089837627E8
S11302A0672776277B836A831C824D8366E070E030
S11302B0C9010BDF9F838E83DF91CF910895CF9384
S11302C0DF93E901888386E0898376276727762789
S11302D07B836A835427452754275D834C8366E0D8
S11302E070E0C901F2DE9F838E83DF91CF91089580
S11302F01F93CF93DF93EC01CB01142FFE01EA5738
S1130300FF4F71836083642F21D1882371F0FE0134
S1130310EB57FF4F1083319710823497118210826C
S1130320CE57DF4F1982188204C0CA57DF4F198293
S11303301882DF91CF911F910895D9C70895FC01C8
S1130340E058FF4F20812F5F2F7719F4118210821C
S113035021E030E0FC01EE57FF4F4081518124172A
S1130360350789F0DC01A058BF4FED91FC9111973E
S1130370E80FF91F61832D933C93FC01EC57FF4F69
S113038080818F5F80830895AF92BF92CF92DF9276
S1130390EF92FF920F931F93CF938C016B017A011D
S11303A0DC01AB57BF4FFC01EA57FF4F6C918081D2
S11303B09181D9D0892BD1F01E141F04BCF4C0E064
S11303C0580185E8A80EB11C0A571F4FF601EC0F1F
S11303D0F11D4081F5016081F8018081918183D014
S11303E0CF5F2C2F30E02E153F0584F3CF911F9162
S11303F00F91FF90EF90DF90CF90BF90AF90089552
S1130400FC01EE57FF4F20813181329740815181A9
S113041042175307E9F02F5F3F4FFC01E20FF31F30
S113042040812F773327FC01EE57FF4F3183208320
S11304303296608170E02617370761F43297118293
S1130440108232971182108234961082842F08957C
S11304508FEF0895842F0895DC01A058BF4FFC014D
S1130460EE57FF4F8C919081891B8F770895FC0183
S1130470EE57FF4F11821082329711821082349608
S113048010820895FC011082118212821382148258
S1130490158216821782909331018093300108955A
S11304A0CF93DF938091300190913101892B49F4EE
S11304B088E090E01CD7EC01E5DFD0933101C093D4
S11304C030018091300190913101DF91CF910895F5
S11304D050E0440F551F840F951FFC017183608306
S11304E0089505C70895262F30E0220F331F820F89
S11304F0931FDC018D919C91009741F0642FDC01E6
S1130500ED91FC910680F781E02D0995089570E046
S1130510660F771F860F971FDC018D919C910097C2
S113052039F0DC01ED91FC910190F081E02D099509
S11305300895E62FF0E0EE0FFF1FE80FF91F80810A
S11305409181892B11F055834483089570E0660FDF
S1130550771FFC01E60FF71F81E020813181232BF7
S113056009F480E0089570E0660F771F860F971FE7
S1130570FC018081918108951F920F920FB60F9212
S113058011240BB60F922F933F934F935F936F9366
S11305907F938F939F93AF93BF93EF93FF9380DFEA
S11305A06CB170E0DC011496ED91FC91159780E03C
S11305B00995FF91EF91BF91AF919F918F917F9199
S11305C06F915F914F913F912F910F900BBE0F90C0
S11305D00FBE0F901F9018951F920F920FB60F9297
S11305E011240BB60F922F933F934F935F936F9306
S11305F07F938F939F93AF93BF93EF93FF9350DFBA
S113060060919C0070E0DC011696ED91FC911797C7
S113061081E00995FF91EF91BF91AF919F918F91E7
S11306207F916F915F914F913F912F910F900BBEEE
S11306300F900FBE0F901F9018950895CF93DF93DE
S1130640EC0110929B0088E980939A0086E08093E5
S11306509D001092980087E68093990081E00E94A3
S11306603F0D9D838C8381E00E943F0D9B838A8391
S1130670DF91CF91089524E031E0FC0131832083A0
S11306802091320130913301232B21F490933301D3
S11306908093320108952BC608951F93CF93DF935F
S11306A0EC01162F20E044E650E060E070E08A811F
S11306B09B810E94570D813081F4EBE9F0E0908139
S11306C095FFFDCF10939C0020E040E050E060E0F7
S11306D070E08A819B810E94AD0CDF91CF911F91C4
S11306E00895DBCF08950F931F93CF93DF938C016D
S11306F0EB0120E044E650E060E070E0FC0184811E
S113070095810E94570D813099F46881662331F0F8
S11307102196C801C2DF69916111FBCF20E040E05E
S113072050E060E070E0F801848195810E94AD0C96
S1130730DF91CF911F910F910895D5CF0895CF9355
S1130740DF93EC0188E98AB986E0809395001092E2
S1130750900087E689B981E00E943F0D9D838C83D8
S113076081E00E943F0D9B838A83DF91CF9108959E
S113077020E131E0FC013183208320913401309168
S11307803501232B21F4909335018093340108958E
S1130790AEC508951F93CF93DF93EC01162F20E08D
S11307A044E650E060E070E08A819B810E94570D2E
S11307B0813061F45D9BFECF1CB920E040E050E045
S11307C060E070E08A819B810E94AD0CDF91CF9143
S11307D01F910895DFCF08950F931F93CF93DF9355
S11307E08C01EB0120E044E650E060E070E0FC01A5
S11307F0848195810E94570D813099F46881662324
S113080031F02196C801C6DF69916111FBCF20E068
S113081040E050E060E070E0F801848195810E943E
S1130820AD0CDF91CF911F910F910895D5CF08950D
S1130830CF93DF93CDB7DEB76C970FB6F894DEBFD6
S11308400FBECDBF6C011092450110924401212CC2
S1130850F12C612C712C5E0188E0A80EB11C02E41D
S113086011E00F2EF3E04F2EF02D812C68943324E9
S113087031F899249394211013C0F1108AC29E0177
S1130880255F3F4F492D6EE271E0892D02DD48E07E
S113089050E0BE01655F7F4FC60176DDF92C79C259
S11308A091E0291213C0F1107AC29E01255F3F4FD7
S11308B0492D65E070E0842DECDC48E050E0BE0199
S11308C0655F7F4FC60160DDF92C69C2E2E02E123C
S11308D013C0F11064C29E01255F3F4F492D64E0AF
S11308E070E0842DD6DC48E050E0BE01655F7F4FA8
S11308F0C6014ADDF92C53C2F3E02F1250C2F110A5
S11309004EC29E01255F3F4F492D6DE271E0832D5C
S1130910C0DC48E050E0BE01655F7F4FC60134DDB6
S1130920F92C3DC2CE0101967C01C60169DDF701B7
S113093081937F01EA15FB05C1F7BE016D5E7F4F10
S1130940CE0101968CDC6E887F88F8017582648202
S113095013821282C6018BDDC6017EDD242CF82CA5
S11309603CC0C60179DD8730C0F1F1E02F1235C0FB
S1130970CE0101967C01C60143DDF70181937F011D
S1130980EA15FB05C1F78D818770813059F43092E7
S11309903601C6016CDD8091360190E0F801978341
S11309A0868304C2823059F480923601C6015FDD29
S11309B08091360190E0F80197838683F7C18430F3
S11309C009F0F0C190923601C60151DD80913601E3
S11309D090E0F80197838683E9C1C6013DDD873045
S11309E058F1F2E02F1228C0CE0101967C01C60115
S11309F007DDF70181937F01EA15FB05C1F78C81BF
S1130A0090E0982F88272D81822BF8019187808789
S1130A1064E670E00E94F912CB01880F991F880FD9
S1130A20991F680F791F73876287C60115DD8730A8
S1130A3050F4242CF82C3EC0C6010EDD8730D0F1D2
S1130A40F3E02F1237C08E010F5F1F4FCE010896BF
S1130A509B8F8A8FC601D4DCF80181938F018A8D24
S1130A609B8DE817F907B1F7BE016D5E7F4FCE018C
S1130A700196F5DB0E891F891093530100935201EF
S1130A80C601F5DC8CE291E00E94E01084E690E07F
S1130A900E94E010E12CF12C0F2EF2E4AF2EF1E0D5
S1130AA0BF2EF02D44244394512C1E0199E0290EAD
S1130AB0311C05C08CE291E00E94E010DCCEF5010F
S1130AC0808891888016910609F03BC104811581C4
S1130AD00615170509F03BC1E11011C09E01255F01
S1130AE03F4F442D61E070E0842DD3DB48E050E0BB
S1130AF0BE01655F7F4FC60147DC38012BC0F4E0BF
S1130B00EF1211C09E01255F3F4F442D61E070E05C
S1130B1082E0BFDB48E050E0BE01655F7F4FC60165
S1130B2033DC38012CC0380185E0E81213C0F5012C
S1130B30408951899E01255F3F4F6DE271E082E05B
S1130B40BEDB48E050E0BE01655F7F4FC6011CDCA0
S1130B50E52C15C0F1E0EF1212C0F5014481558176
S1130B609E01255F3F4F6EE271E0842DA8DB48E0D3
S1130B7050E0BE01655F7F4FC60106DCE52CC6016F
S1130B806BDC8230B0F0F11014C0C60139DC89830B
S1130B90C60136DC8A839981913009F418C19230F8
S1130BA009F4D8C0933009F00EC128C1863009F485
S1130BB013C1F1E0FF1239C08C8D833009F0D4C029
S1130BC0C6014ADC853008F4CDC08E010D5F1F4F8D
S1130BD0C60116DCF80181938F018A8D9B8DE8177D
S1130BE0F907B1F7BE016D5E7F4FCE01019637DB89
S1130BF08E899F89F501938382836894EE24E2F8B9
S1130C00F52CF5C0C60128DC863008F4B1C08E018D
S1130C100D5F1F4FC601F4DBF80181938F01E215CC
S1130C20F305C1F7A5C0F3E0FC8F82E0F81241C0E0
S1130C309C8D933009F0A6C0C6010EDC853008F403
S1130C409CC08E010D5F1F4FC601DADBF801819352
S1130C508F018A8D9B8DE817F907B1F78EC0C60105
S1130C60FBDB863058F08E010D5F1F4FC601C8DBD9
S1130C70F80181938F01E215F305C1F78C8184306B
S1130C8009F084C08D8190E0982F88272E81822BD3
S1130C90F5019187808764E670E00E94F912CB0128
S1130CA0880F991F880F991F680F791F73876287B0
S1130CB06DC0F3E0FF123FC08C8D8330F9F4C601A0
S1130CC0CBDB8530C0F18E010D5F1F4FC60198DB71
S1130CD0F80181938F018A8D9B8DE817F907B1F78D
S1130CE0BE016D5E7F4FCE010196B9DA8E899F8970
S1130CF0F50197878687E52CF52C1DC0FC8DF63011
S1130D00D1F4C601A9DB863058F08E010D5F1F4F68
S1130D10C60176DBF80181938F01E215F305C1F773
S1130D208D8190E0982F88272E81822BF501918B5D
S1130D30808BE52CF52C8CE291E00E94E01084017C
S1130D40BECEF5010481158106151705B9F13801E8
S1130D50E42CEACE833009F446C00F2EF3E0FF2ED4
S1130D60F02D24CFF42C43C0FC8DF63021F74ACF6C
S1130D7086E08C8FE52CF52CDECF93E09C8FE52C60
S1130D80F52CD9CFEC8DE630B1F669CFE52CF52CF6
S1130D90D2CFC60161DB873008F0C4CDE2CDC601F5
S1130DA05BDBDFCDC60158DBF82C46CEC60154DB35
S1130DB0873008F019CE232CF82C3ECE0F2EF5E008
S1130DC0EF2EF02DB1CE833009F0F0CE2CCF83304E
S1130DD009F4F6CEF42CEACEF1E0FF1609F412CFB2
S1130DE086E08C8F22CF0F2EF3E0FF2EF02D92E0C1
S1130DF0F91609F421CFE3E0EC8F5BCF833009F4DB
S1130E001BCF6894FF24F1F8D1CE80918601909194
S1130E10870195CA089580918801909189018FCAAC
S1130E20089580EE84BB8FEF85BB10BCE6E5F1E04E
S1130E30989B05C0808180688083AD9A05C08081BD
S1130E408F778083AD98AE98999B04C0818181602F
S1130E50818303C081818E7F81839A9B04C08181B9
S1130E608260818303C081818D7F81839B9B04C0C9
S1130E70818184608183DCCF81818B7F8183D8CF22
S1130E80CF93DF9388E090E02CDBEC01FBDAD09386
S1130E908B01C0938A0186E090E07ADCEC0168DC87
S1130EA040E0BE0180918A0190918B0111DB86E0C4
S1130EB090E0F1DBEC01DFDB41E0BE0180918A01CF
S1130EC090918B0105DB60E080918A0190918B0108
S1130ED01EDB61E080918A0190918B0118DBDF9128
S1130EE0CF910895CF92DF92EF92FF920F93CF9319
S1130EF0DF93F8948FEF8093640080936500809370
S1130F006100889A82B913B887BB88BBB9DF45E012
S1130F1057E060E080918A0190918B010ADB4BE0FD
S1130F2057E061E080918A0190918B0102DB88E8AF
S1130F3090E003DA6C0160918A0170918B0140E0CA
S1130F40D7D988E890E0F9D9EC0160918A017091D1
S1130F508B0141E0CDD9E6E8F1E0D182C082D383B0
S1130F60C2837894E12CF12C02E0960140EF50E02A
S1130F7068E171E082E498E0C7D69E0140EF50E05A
S1130F806EE171E088E194E0BFD620E030E040EF0C
S1130F9050E064E271E081E197E0B6D6B3D780E037
S1130FA090E0DF91CF910F91FF90EF90DF90CF9081
S1130FB00895AB014250510921E04330510508F432
S1130FC020E0FC01E60FF71F8081882309F43FC06D
S1130FD0E6E5F1E081E090E0062E02C0880F991F5B
S1130FE00A94E2F79081892B8083222361F028B34D
S1130FF081E090E0062E02C0880F991F0A94E2F760
S11310008095822388BB6230710539F410923601D1
S1131010109249011092480108956330710551F40A
S113102081E08093360181E090E0909349018093C0
S1131030480108956430710521F582E080933601FA
S113104082E090E090934901809348010895E6E599
S1131050F1E081E090E0062E02C0880F991F0A9407
S1131060E2F78095908189238083222351F028B36D
S113107081E090E002C0880F991F6A95E2F7822B05
S113108088BB0895CF93DF93CDB7DEB72A970FB609
S1131090F894DEBF0FBECDBF7C011092560184EFE1
S11310A091E09093430180934201B12C2E018CE096
S11310B0480E511C05E610E0DD24DA947D2C312C19
S11310C0CC24C3944E0199E0890E911C0F2EF5E0B7
S11310D02F2EF02D6894662462F80DC0AC2CBC2C25
S11310E00AC0A62CBC2C07C0A22CBC2C04C068943B
S11310F0AA24A4F8BC2CB11041C0C701ADD98230D8
S1131100D0F3F801D082C7017BD98983F80110821A
S1131110D082C70175D98A83F80110828981813010
S113112069F0C0923701C3B8E2E4F1E082859385A7
S1131130019693878287C7019AD913B88A8181302F
S113114011F1843009F447C0853009F46CC0803152
S113115009F49FC02C2D4C2D60E671E0CE01019660
S11311606ED845E050E060E671E0C7010DD9C09249
S1131170370163B8C7017BD913B8BDCFF1E0BF1203
S1131180BACFAF1225C0C70167D9863008F4A6CFFD
S1131190CE0103965C01F8017082C70131D9F501D3
S11311A081935F01F8011082A814B904A1F746E500
S11311B051E06FE771E0CE0101960E94830047E0A1
S11311C050E06FE771E0C701DFD8AC2CB32C93CFAC
S11311D0F4E0AF1225C0C7013FD9863008F481CFAF
S11311E0CE0103965C01F8017082C70109D9F501AB
S11311F081935F01F8011082A814B904A1F742E4B5
S113120051E060E771E0CE0101960E94A20047E040
S113121050E060E771E0C701B7D8A62CB32C6BCFC0
S1131220F5E0AF1233C0C70117D9863008F45CCF9C
S1131230CE0103965C01F8017082C701E1D8F50183
S113124081935F01F8011082A814B904A1F767E73C
S113125071E0CE0101960E94C300E7E7F1E06281EC
S113126070E0762F66278381682BDB01A85CBE4F74
S113127084818C9388E391E09CDE48E050E067E74A
S113128071E0C70181D8A22CB32C35CFF0E1AF12A5
S113129032CFC701E1D8893008F429CFCE010396B3
S11312A05C01F8017082C701ABD8F50181935F013D
S11312B0F8011082A414B504A1F742E451E065E6F4
S11312C071E0CE0101960E94DC0068E571E0CE0178
S11312D001960E94060148E050E068E571E0C7010C
S11312E053D86894AA24A4F8B32C05CF0895CF93B7
S11312F0DF93EC012FD680918C0190918D01892B85
S113130031F481E991E090938D0180938C012091D7
S11313108E0130918F01CE01820F931F8F3C47E0E5
S1131320940770F42817390770F4C0918C01D09198
S11313308D01C20FD31F90938F0180938E0105C03E
S1131340C0E0D0E002C0C0E0D0E0C1D6CE01DF9161
S1131350CF9108950895FC010396928381832FEF22
S11313603FEF34832383968385839087878310821A
S11313700895FC01118610860895CF93DF939C0194
S1131380FB01DC011196CD91DC911297D383C283CA
S11313908C819D81958384838C819D81DC0113964E
S11313A07C936E9312977D836C8331872087F90138
S11313B080818F5F8083DF91CF910895CF93DF93F6
S11313C0EB01488159814F3F2FEF520721F4FC0173
S11313D0A781B0850DC0DC01139601C0DF01129610
S11313E0ED91FC9113972081318142175307B0F797
S11313F01296ED91FC911397FB83EA83D583C48302
S1131400BD83AC831396DC93CE9312979987888718
S1131410FC0120812F5F2083DF91CF910895CF932A
S1131420DF93FC01A085B185C281D381848195813C
S11314309D838C83C481D581828193819B838A839C
S11314401196CD91DC911297CE17DF0731F48C8180
S11314509D8112969C938E931197118610868C9180
S113146081508C93DF91CF91089531E1FC01308359
S1131470319722E220833197A3E3A08331976083DD
S11314803197708331971082319760E86083319788
S11314901082319762E06083319763E06083319713
S11314A064E06083319765E06083319766E0608330
S11314B0319767E06083319768E06083319769E032
S11314C06083319760E1608331973083319732E1F3
S11314D03083319733E13083319734E1308331976E
S11314E035E13083319736E13083319737E130830A
S11314F0319738E13083319739E13083319730E2E5
S11315003083319731E2308331972083319723E25E
S113151020833197408331975083319726E220838B
S1131520319727E22083319728E22083319729E2FB
S11315302083319720E32083319721E3208386970A
S113154008951BBC89EF8ABD8BE08EBD87B780618F
S113155087BFA091C409B091C509CD91CDBFDD91DC
S1131560DEBFFF91EF91DF91CF91BF91AF919F913A
S11315708F917F916F915F914F913F912F911F9127
S11315800F91FF90EF90DF90CF90BF90AF909F901E
S11315908F907F906F905F904F903F902F901F900F
S11315A00F900FBE0F90089581E008950F920FB62B
S11315B0F8940F921F9211242F923F924F925F92B0
S11315C06F927F928F929F92AF92BF92CF92DF924F
S11315D0EF92FF920F931F932F933F934F935F9339
S11315E06F937F938F939F93AF93BF93CF93DF9327
S11315F0EF93FF93A091C409B091C5090DB60D9264
S11316000EB60D9224D6A091C409B091C509CD910E
S1131610CDBFDD91DEBFFF91EF91DF91CF91BF91FF
S1131620AF919F918F917F916F915F914F913F9176
S11316302F911F910F91FF90EF90DF90CF90BF906B
S1131640AF909F908F907F906F905F904F903F905E
S11316502F901F900F900FBE0F9008950F920FB60A
S1131660F8940F921F9211242F923F924F925F92FF
S11316706F927F928F929F92AF92BF92CF92DF929E
S1131680EF92FF920F931F932F933F934F935F9388
S11316906F937F938F939F93AF93BF93CF93DF9376
S11316A0EF93FF93A091C409B091C5090DB60D92B3
S11316B00EB60D9255D48111CAD5A091C409B0912A
S11316C0C509CD91CDBFDD91DEBFFF91EF91DF91D3
S11316D0CF91BF91AF919F918F917F916F915F91C6
S11316E04F913F912F911F910F91FF90EF90DF90B9
S11316F0CF90BF90AF909F908F907F906F905F90AE
S11317004F903F902F901F900F900FBE0F90089511
S1131710A5DF18950F931F93CF93DF93EC01042F4C
S11317201A8D8C8D81110BC088819981892B09F0C8
S113173041C08A819B810BD71B821A8242C041110E
S113174017C0482F50E08C819D817AD72C8D8C81D5
S11317509D81820F911D9D838C832A813B818217F9
S1131760930750F1888199819D838C8380E029C0FF
S1131770482F50E08E819F8163D78C8D90E09195A6
S1131780819591092E813F81280F391F3F832E8334
S1131790488159812417350730F42A813B81820F0F
S11317A0931F9F838E83023049F4112349F0115013
S11317B080E007C080E005C080E003C080E001C095
S11317C080E01F5F1A8FDF91CF911F910F910895D1
S11317D0FC01448D4423A1F050E026813781240F7D
S11317E0351F37832683828193812817390720F098
S11317F08081918197838683CB016681778120C71D
S11318000895EF92FF920F931F93CF938C010FB61D
S1131810F8940F92FC01C68D1C169CF481898111E9
S113182006C00FC0F8019189911105C00AC0780162
S1131830F1E1EF0EF11CC7019BD5811122D6C150F5
S113184089F78FEFF801868F0F900FBE0FB6F894CB
S11318500F92C58D1C169CF48085811106C00FC0A3
S1131860F8019085911105C00AC07801F8E0EF0EE7
S1131870F11CC7017DD5811104D6C15089F78FEFC2
S1131880F801858F0F900FBECF911F910F91FF909C
S1131890EF900895CF93DF93EC010FB6F8940F9275
S11318A0488159812C8D30E07B8D729FC001739FDC
S11318B0900D1124FA01E80FF91FFB83EA831A8EB5
S11318C05D834C83821B930B840F951F9F838E83B0
S11318D08FEF8D8F8E8F61110AC08885882369F000
S11318E0CE01089645D5882341F060DE06C0CE01BE
S11318F0089631DDCE0141962EDD0F900FBE81E0BA
S1131900DF91CF9108950F931F93CF93DF93082F07
S1131910162F6623B1F0869FC00111244F96E7DC91
S1131920EC01009739F413C00B8F1C8F61E0CE01DA
S1131930B1DF0DC04F9699838883F6CFD983C883CE
S1131940F3CF8FE190E0D3DCEC01892BB9F7CE0122
S1131950DF91CF911F910F9108959F92AF92BF9203
S1131960CF92DF92EF92FF920F931F93CF93DF9367
S113197000D000D01F92CDB7DEB78C016B015D8320
S11319804C83A22EB12C992493947C0188E0E80E18
S1131990F11C0FB6F8940F92F801328D938D39171C
S11319A018F0F2E0AF1215C04A2DB601C801B2DE3C
S11319B0F8019189992339F0C8014196D9D4882333
S11319C021F0F4DD02C08111F1DD0F900FBE81E042
S11319D045C0EC81FD81EF2B21F40F900FBE80E018
S11319E03DC0B11004C0CE01019608D5B92C0F90AA
S11319F00FBEB0D20FB6F8940F92F801858D8F3FC9
S1131A0009F4158EF801868D8F3F09F4168E0F9018
S1131A100FBEBE016C5F7F4FCE010196FAD48111D7
S1131A2019C00FB6F8940F92F801928D0F900FBE63
S1131A30838D98130BC06C817D81C70188D4C80144
S1131A40E0DE45D38111A5CFB1DDA3CFC801D9DE36
S1131A503ED39FCFC801D5DE3AD380E00F900F90DC
S1131A600F900F900F90DF91CF911F910F91FF90E6
S1131A70EF90DF90CF90BF90AF909F900895CF9359
S1131A80DF93482F60E081E03EDFEC01009759F0DE
S1131A901B821A82198218821E8220E040E050E0E4
S1131AA060E070E05ADFCE01DF91CF9108958F920C
S1131AB09F92AF92BF92CF92DF92EF92FF920F93D9
S1131AC01F93CF93DF9300D000D01F92CDB7DEB722
S1131AD08C015B015D834C83822EE12C99249394C9
S1131AE06C0181E1C80ED11C0FB6F8940F92F80175
S1131AF0F28CFF2061F1C680D780B501C80168DE91
S1131B00811016C0FA94F801F28E80819181892B9C
S1131B1021F45DD5F80193838283F80180858823BD
S1131B2091F0C801089624D4882369F03FDD0BC0E6
S1131B30F801D782C6828189882329F0C801419699
S1131B4017D4811133DD0F900FBE81E058C04C8152
S1131B505D81452B21F40F900FBE80E050C0E11051
S1131B6004C0CE0101964AD4E92C0F900FBEF2D1E5
S1131B700FB6F8940F92F801858D8F3F09F4158EF6
S1131B80F801968D9F3F09F4168E0F900FBEBE018B
S1131B906C5F7F4FCE0101963CD4811124C00FB6F7
S1131BA0F8940F92F801828D0F900FBE811117C027
S1131BB080819181892B41F40FB6F8940F92828130
S1131BC0938163D40F900FBE6C817D81C601BFD316
S1131BD0C80117DE7CD2811187CFE8DC85CFC8012C
S1131BE010DE75D281CFC8010CDE71D20FB6F89425
S1131BF00F92F801828D0F900FBE811175CF0F9057
S1131C000F900F900F900F90DF91CF911F910F9134
S1131C10FF90EF90DF90CF90BF90AF909F908F9008
S1131C200895E0918C09F0918D098081811107C09C
S1131C308FEF9FEF90936409809363090895E09177
S1131C408C09F0918D090580F681E02D0680F781DD
S1131C50E02D8281938190936409809363090895B0
S1131C60FF920F931F93CF93DF93EC01F62E009115
S1131C706B0910916C098091C4099091C509029671
S1131C80CEDBCF3F8FEFD80761F4FF2051F0609196
S1131C90C4097091C5096E5F7F4F8EE699E06DDBD4
S1131CA02DC0C00FD11FE091C409F091C509D383A1
S1131CB0C283C017D10760F46091C4097091C5094B
S1131CC080918A0990918B096E5F7F4F77DB16C0F4
S1131CD06091C4097091C50980918C0990918D0916
S1131CE06E5F7F4F6BDB8091630990916409C81725
S1131CF0D90720F4D0936409C0936309DF91CF918D
S1131D001F910F91FF9008954F925F926F927F926F
S1131D108F929F92AF92BF92CF92DF92EF92FF92F7
S1131D200F93CF93DF934C016B015A012901CA0130
S1131D30DEDA3C01892B09F4D4C088E290E0D7DADA
S1131D40EC01892B71F0788E6F8A81E0A81AB108B2
S1131D506A0C7B1CD6018C91898F8C91811104C0F3
S1131D6017C0C301F7DABDC0AE01465E5F4FF6018E
S1131D703196B8E0CB0ED11CCF012191DA012D931D
S1131D80AD01DC018C91882319F0EC15FD05A1F758
S1131D9018A2043008F003E00E8B09A31AA26E0106
S1131DA0B2E0CB0ED11CC601E4DACE010C96E1DA26
S1131DB0D987C88784E090E0801B91099D878C8730
S1131DC0DB8BCA8B1BA21CA21DA21EA21FA2A201F6
S1131DD0B401C3014ADB99838883E114F10419F047
S1131DE0F701D183C0830FB6F8940F9280916D09E7
S1131DF08F5F80936D098091C4099091C509892BE7
S1131E0089F5D093C509C093C40980916D098130C7
S1131E1009F038C080EA99E09EDA89EA99E09BDA11
S1131E2082EB99E098DA8BEB99E095DA87E999E00F
S1131E3092DA8EE899E08FDA81E899E08CDA88E723
S1131E4099E089DA8EE699E086DA87E999E0909359
S1131E508D0980938C098EE899E090938B09809387
S1131E608A0910C08091690981110CC0E091C409EC
S1131E70F091C50996898E89891720F0D093C509F8
S1131E80C093C409809165098F5F809365098E8929
S1131E9090916A09981710F480936A0990E09C0164
S1131EA0220F331F220F331F220F331F820F931F62
S1131EB0B6018056964F61DA0F900FBE8091690982
S1131EC0882359F0E091C409F091C50996898E8957
S1131ED0981728F46BDB81E005C081E003C081E042
S1131EE001C08FEFDF91CF910F91FF90EF90DF90C2
S1131EF0CF90BF90AF909F908F907F906F905F90A6
S1131F004F900895EF92FF920F930F2EF1E6EF2E6C
S1131F10F9E0FF2EF02D00E020E030E045E550E050
S1131F206AE271E080EF90E1EFDE813079F4F894B9
S1131F308FEF9FEF909364098093630981E080930E
S1131F40690910926C0910926B09FBDA0F91FF90EA
S1131F50EF900895809160098F5F809360090895E0
S1131F60CF92DF92EF92FF920F931F93CF93DF9361
S1131F7080916009811195C0E0906B09F0906C0923
S1131F808FEFE81AF80AF0926C09E0926B09E114F9
S1131F90F104B1F480918C0990918D0920918A0902
S1131FA030918B0930938D0920938C0990938B0980
S1131FB080938A09809166098F5F8093660931DE78
S1131FC08091630990916409E816F90610F4D12C04
S1131FD050C0D12CCC24C394E0918C09F0918D098C
S1131FE09081911107C08FEF9FEF909364098093C4
S1131FF063093FC0E0918C09F0918D090580F68159
S1132000E02DC681D7812A813B81E216F30628F4AC
S113201030936409209363092CC08E010E5F1F4F17
S1132020C801FDD98C899D89892B19F0CE010C96A4
S1132030F6D92E8980916A09821710F420936A09CF
S113204030E0C901880F991F880F991F880F991FC5
S1132050820F931FB8018056964F8FD9E091C4091F
S1132060F091C5099E898689981708F4B5CFDC2CB0
S1132070B3CFE091C409F091C509868990E0FC01D1
S1132080EE0FFF1FEE0FFF1FEE0FFF1F8E0F9F1FA0
S1132090FC01E056F64F8081823048F0DD24D39471
S11320A006C0809168098F5F80936809D12C809164
S11320B06709882311F0DD24D3948D2DDF91CF910E
S11320C01F910F91FF90EF90DF90CF900895DF92D2
S11320D0EF92FF920F931F93CF93DF930FB6F89471
S11320E00F9280916009815080936009809160090A
S11320F0811159C080916D09811130C057C0D70139
S11321001596ED91FC911697C681D781CE010C9658
S113211086D98E010E5F1F4FC80181D92E89809107
S11321206A09821710F420936A0930E0C901880F04
S1132130991F880F991F880F991F820F931FB80149
S11321408056964F1AD9E091C409F091C5099E8929
S11321508689981768F0D09267090AC0C0E0D0E079
S11321600F2EF1E8EF2EF9E0FF2EF02DDD24D394AD
S1132170F70180818111C3CFCD2B09F052DDC091CD
S11321806809CC2349F0D1E0EBDE8111D0936709D3
S1132190C150D1F71092680980916709882329F00A
S11321A005DA81E003C080E001C080E00F900FBE3B
S11321B0DF91CF911F910F91FF90EF90DF900895E1
S11321C0CF93DF93EC01892B39F0C4DE60E0CE01BC
S11321D047DD7DDF811101C0E9D9DF91CF910895F9
S11321E008E719E00F2EF0EAEF2EF9E0FF2EF02DAC
S11321F024C0B0DED801CC916ADFCC23F1F00FB655
S1132200F8940F92D8011596ED91FC911697C6811A
S1132210D781CE01029603D980916D0981508093B4
S11322206D09809177098150809377090F900FBED3
S11322308F89988D8FD8CE018DD88091770981119F
S1132240D8CFF70180818230C0F3B0D9F6CF809126
S11322506009882321F081E0809367090895109232
S11322606709A091C409B091C509E091C409F0912E
S1132270C5092D913C918789908D8217930758F059
S11322806091C4097091C5098091C4099091C509F0
S1132290675E7F4F2BD820916A09822F90E0FC0162
S11322A0EE0FFF1FEE0FFF1FEE0FFF1FE80FF91FCA
S11322B0E056F64F3081311111C02150822F90E049
S11322C0FC01EE0FFF1FEE0FFF1FEE0FFF1FE80FC5
S11322D0F91FE056F64F3081332379F3AC01440FF4
S11322E0551F440F551F440F551F480F591FDA013E
S11322F0A056B64F1196ED91FC9112970280F3818E
S1132300E02D1296FC93EE9311974D55564FE4171A
S1132310F50729F442815381FD0152834183FC0175
S1132320EE0FFF1FEE0FFF1FEE0FFF1F8E0F9F1FFD
S1132330FC01E056F64F0180F281E02D8681978101
S11323409093C5098093C40920936A090895CF9393
S1132350DF93EB012091C4093091C509B901645F91
S11323607F4F2CD861E0CE017BDCDF91CF910895C3
S11323700F931F93CF93DF93DC011596ED91FC919E
S11323801697C681D7818E01045F1F4FC80147D8B5
S11323908091600981111BC00A501109C8013FD8FE
S11323A02E8980916A09821710F420936A0930E01B
S11323B0C901880F991F880F991F880F991F820FD1
S11323C0931FB8018056964F0E94BD0905C0B801FD
S11323D081E899E00E94BD09E091C409F091C50922
S11323E09E898689891720F481E08093670901C05A
S11323F080E0DF91CF911F910F910895209166099C
S1132400FC01208320916B0930916C093283218374
S113241008950FB6F8940F9240916B0950916C098E
S1132420DB012D913C912F3FBFEF3B0711F1E09170
S11324306609DC01FC91FE1739F01196ED91FC91CF
S113244012974E175F07B8F4DC011196ED91FC91D9
S11324501297DA01AE1BBF0BA217B30770F4DB01AE
S1132460E41BF50B2E0F3F1F2D933C93C7DF80E039
S113247005C080E003C081E001C081E00F900FBE81
S1132480089581E08093670908950F931F93CF9374
S1132490DF93FC01892B09F455C02689A091C40956
S11324A0B091C50956968C91281708F04BC08485C5
S11324B09585992364F0A091C409B091C5095696F5
S11324C03C9184E090E0831B91099587848730E0F8
S11324D0C901880F991F880F991F880F991F280F0A
S11324E0391F2056364F828593858217930719F535
S11324F08F01EF012296CE010E940F0AE091C409D8
S1132500F091C5092689F801268B80916A09821702
S113251010F420936A0930E0C901880F991F880FCD
S1132520991F880F991F820F931FBE018056964FE3
S11325300E94BD0907C0A091C409B091C50956966F
S11325408C91868BDF91CF911F910F9108950F93FA
S11325501F93CF93DF93FC01892B79F182A18150E2
S113256082A3268991A1291751F181112AC0EF0173
S11325708F010E5F1F4FC8010E940F0A29A12E8BE5
S113258044E050E0421B51095D874C8780916A0901
S1132590821710F420936A0930E0C901880F991F4B
S11325A0880F991F880F991F820F931FB8018056B7
S11325B0964F0E94BD0981E005C080E003C080E021
S11325C001C080E0DF91CF911F910F910895809118
S11325D0C4099091C509892B39F0E091C409F0919F
S11325E0C50982A18F5F82A38091C4099091C50916
S11325F0089597FB072E16F4009406D077FD08D0B3
S11326000BD007FC05D03EF4909581959F4F08951B
S1132610709561957F4F0895AA1BBB1B51E107C0BC
S1132620AA1FBB1FA617B70710F0A61BB70B881F5E
S1132630991F5A95A9F780959095BC01CD010895ED
S1132640FB01DC0102C001900D9241505040D8F7CB
S10926500895F894FFCF89
S1132656000000001E031D039D037103000000001B
S11326669F031D031604EA035461736B310054611E
S1132676736B32005461736B330049444C4500005C
S9030000FC
