S00C000052544F532E73726563D0
S113000045C0000061C000005FC000005DC000008A
S11300105BC0000059C0000057C0000055C000007C
S113002053C0000051C000004FC000004DC000008C
S11300300C94230C49C0000047C0000045C00000D8
S113004043C0000041C0000098C200003DC0000051
S11300503BC0000039C0000037C0000035C00000BC
S113006033C0000031C000002FC000002DC00000CC
S11300702BC0000029C00000B0C2000025C0000051
S113008023C0000021C000001FC0000011241FBEB7
S1130090CFEFD0E1DEBFCDBF11E0A0E0B1E0ECE8EE
S11300A0F7E200E00BBF02C007900D92A033B10746
S11300B0D9F729E0A0E3B1E001C01D92A43EB20744
S11300C0E1F795D70C94C4139BCFFC01680F791FFB
S11300D08FEF9FEFB8E0A0E012C0219182272B2F71
S11300E03A2FAC014170552796958795452B21F001
S11300F041E0842740EA94272150310991F7E6171B
S1130100F70759F70895CF93DF93FC01EB01808142
S113011088838181898382E08A838381DA01A80FBD
S1130120B11D8C918B838381FA01E80FF11D8181CC
S11301308C8365E070E0CE01C8DF9E838D83DF9100
S1130140CF910895CF93DF93DC01EB018C918883E9
S113015011968C911197898313969C9182E08A83DE
S1130160E92FF0E0EE0FFF1FE40FF51F81818B8371
S113017080818C8365E070E0CE01A7DF9E838D8350
S1130180DF91CF910895CF93DF93FC01EB01808140
S113019088838181898382818A8383818B8384811B
S11301A08C8385818D8366E070E0CE018EDF9F8332
S11301B08E83DF91CF910895CF93DF93FC01EB0100
S11301C0808188838181898382818A8383818B83EF
S11301D094819C8395819D8396819E8327812F831F
S11301E090859887E82FF0E0EE0FFF1FE40FF51FCE
S11301F0892F90E0922B9183808369E070E0CE0197
S113020064DF9A878987DF91CF910895CF93DF9335
S1130210FC01EB01808188838181898382818A83C7
S113022083818B8384818C8385818D8366E070E0F8
S1130230CE014BDF9F838E83DF91CF910895CF93BF
S1130240DF93EB01488381E889832A8363E070E0CC
S1130250CE013BDF9C838B83DF91CF910895DC013A
S1130260FB018C91808311968C9111978183129656
S11302708C911297828313962C91139730E0322F2E
S113028022273483238314968C91282B348323834D
S11302900895CF93DF93E901888383E089837627E8
S11302A0672776277B836A831C824D8366E070E030
S11302B0C9010BDF9F838E83DF91CF910895CF9384
S11302C0DF93E901888386E0898376276727762789
S11302D07B836A835427452754275D834C8366E0D8
S11302E070E0C901F2DE9F838E83DF91CF91089580
S11302F01F93CF93DF93EC01CB01142FFE01EA5738
S1130300FF4F71836083642F22D1882371F0FE0133
S1130310EB57FF4F1083319710823497118210826C
S1130320CE57DF4F1982188204C0CA57DF4F198293
S11303301882DF91CF911F9108950C94120A0895A9
S1130340FC01E058FF4F20812F5F2F7719F41182B1
S1130350108221E030E0FC01EE57FF4F40815181D3
S11303602417350789F0DC01A058BF4FED91FC91AB
S11303701197E80FF91F61832D933C93FC01EC570F
S1130380FF4F80818F5F80830895AF92BF92CF9299
S1130390DF92EF92FF920F931F93CF938C016B0127
S11303A07A01DC01AB57BF4FFC01EA57FF4F6C9158
S11303B080819181D9D0892BD1F01E141F04BCF403
S11303C0C0E0580185E8A80EB11C0A571F4FF6017A
S11303D0EC0FF11D4081F5016081F801808191816C
S11303E083D0CF5F2C2F30E02E153F0584F3CF91BF
S11303F01F910F91FF90EF90DF90CF90BF90AF903F
S11304000895FC01EE57FF4F2081318132974081DE
S1130410518142175307E9F02F5F3F4FFC01E20F70
S1130420F31F40812F773327FC01EE57FF4F3183B1
S113043020833296608170E02617370761F4329783
S11304401182108232971182108234961082842F86
S113045008958FEF0895842F0895DC01A058BF4FAD
S1130460FC01EE57FF4F8C919081891B8F77089583
S1130470FC01EE57FF4F11821082329711821082D5
S1130480349610820895FC01108211821282138224
S11304901482158216821782909331018093300161
S11304A00895CF93DF938091300190913101892B8E
S11304B049F488E090E0B6D7EC01E5DFD093310150
S11304C0C09330018091300190913101DF91CF913F
S11304D0089550E0440F551F840F951FFC0171834C
S11304E0608308959FC70895262F30E0220F331F9D
S11304F0820F931FDC018D919C91009741F0642F32
S1130500DC01ED91FC910680F781E02D09950895B9
S113051070E0660F771F860F971FDC018D919C9109
S1130520009739F0DC01ED91FC910190F081E02D10
S113053009950895E62FF0E0EE0FFF1FE80FF91F6D
S113054080819181892B11F055834483089570E053
S1130550660F771FFC01E60FF71F81E020813181D0
S1130560232B09F480E0089570E0660F771F860F4F
S1130570971FFC018081918108951F920F920FB6FD
S11305800F9211240BB60F922F933F934F935F93C7
S11305906F937F938F939F93AF93BF93EF93FF9347
S11305A080DF6CB170E0DC011496ED91FC9115973D
S11305B080E00995FF91EF91BF91AF919F918F9149
S11305C07F916F915F914F913F912F910F900BBE4F
S11305D00F900FBE0F901F9018951F920F920FB699
S11305E00F9211240BB60F922F933F934F935F9367
S11305F06F937F938F939F93AF93BF93EF93FF93E7
S113060050DF60919C0070E0DC011696ED91FC9146
S1130610179781E00995FF91EF91BF91AF919F9159
S11306208F917F916F915F914F913F912F910F9097
S11306300BBE0F900FBE0F901F9018950895CF9387
S1130640DF93EC0110929B0088E980939A0086E086
S113065080939D001092980087E68093990081E032
S11306600E94DA0D9D838C8381E00E94DA0D9B83C6
S11306708A83DF91CF91089524E031E0FC01318336
S113068020832091320130913301232B21F4909364
S11306903301809332010895C5C608951F93CF9303
S11306A0DF93EC01162F20E044E650E060E070E0B8
S11306B08A819B810E94F20D813081F4EBE9F0E0A4
S11306C0908195FFFDCF10939C0020E040E050E026
S11306D060E070E08A819B810E94480DDF91CF9198
S11306E01F910895DBCF08950F931F93CF93DF934A
S11306F08C01EB0120E044E650E060E070E0FC0196
S1130700848195810E94F20D813099F46881662379
S113071031F02196C801C2DF69916111FBCF20E05D
S113072040E050E060E070E0F801848195810E942F
S1130730480DDF91CF911F910F910895D5CF089562
S1130740CF93DF93EC0188E98AB986E08093950022
S11307501092900087E689B981E00E94DA0D9D83AA
S11307608C8381E00E94DA0D9B838A83DF91CF9191
S1130770089520E131E0FC0131832083209134018C
S113078030913501232B21F490933501809334016A
S1130790089548C608951F93CF93DF93EC01162F55
S11307A020E044E650E060E070E08A819B810E9492
S11307B0F20D813061F45D9BFECF1CB920E040E076
S11307C050E060E070E08A819B810E94480DDF91D7
S11307D0CF911F910895DFCF08950F931F93CF9367
S11307E0DF938C01EB0120E044E650E060E070E030
S11307F0FC01848195810E94F20D813099F4688115
S1130800662331F02196C801C6DF69916111FBCFDF
S113081020E040E050E060E070E0F80184819581E0
S11308200E94480DDF91CF911F910F910895D5CF6C
S11308300895CF93DF93CDB7DEB76E970FB6F894D4
S1130840DEBF0FBECDBF7C0110924F0110924E014E
S1130850612C712CA12CB12C6E0188E0C80ED11C26
S11308600CE411E0412C6894992491F85524539494
S1130870611013C0711012C39E01255F3F4F452DB7
S11308806EE271E0852D05DD48E050E0BE01655F54
S11308907F4FC7017ADD752C01C391E0691213C043
S11308A0711002C39E01255F3F4F452D65E070E046
S11308B083E0EFDC48E050E0BE01655F7F4FC70195
S11308C064DD752CF1C2E2E06E1213C07110ECC24B
S11308D09E01255F3F4F452D64E070E083E0D9DC45
S11308E048E050E0BE01655F7F4FC7014EDD752CC7
S11308F0DBC2F3E06F12D8C27110D6C29E01255F2D
S11309003F4F452D6DE271E0892DC3DC48E050E096
S1130910BE01655F7F4FC70138DD752CC5C2CE01AE
S113092001965C01C7016DDDF50181935F01EC1552
S1130930FD05C1F7BE016D5E7F4FCE0101968FDCD0
S1130940AE88BF88F801B582A48213821282C701DF
S11309508FDDC70182DD873058F4652C742C40C0CC
S1130960C7017BDD873008F43BC0F1E06F1238C06B
S1130970CE0101963C01C70144DDF30181933F019F
S1130980EC15FD05C1F78D818770813061F490927B
S11309903601C7016DDD8091360190E0F80197833F
S11309A08683892C89C2823061F440923601C70162
S11309B05FDD8091360190E0F80197838683842C73
S11309C07BC2843009F073C250923601C70150DDF6
S11309D08091360190E0F80197838683852C6CC260
S11309E0C7013BDD873070F1F2E06F122BC0CE01FE
S11309F001963C01C70105DDF30181933F01EC152C
S1130A00FD05C1F78C8190E0982F88272D81822BDA
S1130A10F8019187808764E670E00E9494131B01BB
S1130A20220C331C220C331C260E371E33862286DE
S1130A30C70113DD873070F40F2EF3E06F2EF02D15
S1130A40742C42C0C70109DD873008F43DC0F3E0CF
S1130A506F123AC08E010F5F1F4FCE0108969B8F15
S1130A608A8FC701CEDCF80181938F018A8D9B8D1B
S1130A70E817F907B1F7BE016D5E7F4FCE0101960D
S1130A80EEDB0E891F8910935D0100935C01C701A1
S1130A90EFDC8CE291E00E947B1184E690E00E94FE
S1130AA07B11512C412C0F2EFCE46F2EF1E07F2E94
S1130AB0F02D6894992491F8FE013996FD8FEC8FFE
S1130AC0D42CC52C270105C08CE291E00E947B1137
S1130AD0CFCEF301828593858215930521F00F2EE5
S1130AE0F3E0CF2EF02D809136018812C92CF3014A
S1130AF0E088F188E016F10609F0A6C104811581A9
S1130B000A151B0509F0A6C1C11011C09E01255F7D
S1130B103F4F41E061E070E081E0BBDB48E050E042
S1130B20BE01655F7F4FC20130DC58012BC0F4E089
S1130B30CF1211C09E01255F3F4F41E061E070E09C
S1130B40892DA7DB48E050E0BE01655F7F4FC201FD
S1130B501CDC58012DC0580185E0C81213C0F301F4
S1130B60408951899E01255F3F4F6DE271E0892DD7
S1130B70A6DB48E050E0BE01655F7F4FC20105DCA3
S1130B80C12C5BC0F1E0CF1213C0F3014481558145
S1130B909E01255F3F4F6EE271E081E090DB48E00B
S1130BA050E0BE01655F7F4FC201EFDBC12C64C022
S1130BB0F2E0CF1242C0809136018130A1F49E014F
S1130BC0255F3F4F44E050E065E070E083E077DB71
S1130BD048E050E0BE01655F7F4FC201D6DBC12C07
S1130BE08824839449C0811113C09E01255F3F4F1F
S1130BF042E050E065E070E083E061DB48E050E013
S1130C00BE01655F7F4FC201C0DBC12C812C34C0A3
S1130C10823091F59E01255F3F4F40E050E065E052
S1130C2070E083E04CDB48E050E0BE01655F7F4F3D
S1130C30C201ABDBC12C892C1FC083E0C8121CC0CD
S1130C40F3018285938565E070E00E949413F4E6D5
S1130C50F69FA001F79F500D11249E01255F3F4F81
S1130C6064E070E083E02BDB48E050E0BE01655FA8
S1130C707F4FC2018ADBC12CC201EFDB8230B0F0AE
S1130C80D11014C0C201BDDB8983C201BADB8A83DF
S1130C909981913009F41DC1923009F4DFC0933079
S1130CA009F01DC132C1863009F41DC181E0D8129A
S1130CB03BC09E8D933009F0DCC0C201CEDB853091
S1130CC008F4D4C08E010D5F1F4FC2019ADBF801F6
S1130CD081938F018A8D9B8DE817F907B1F7BE01C7
S1130CE06D5E7F4FCE010196BADA8E899F89F3013A
S1130CF0938382836894CC24C2F8D12CFFC0C201B0
S1130D00ACDB863008F4B9C08E010D5F1F4FC20101
S1130D1078DBF80181938F018C8D9D8DE817F9079D
S1130D20B1F7ABC093E09E8FE2E0DE1243C0FE8DCC
S1130D30F33009F0ACC0C20190DB853008F4A2C0E6
S1130D408E010D5F1F4FC2015CDBF80181938F019F
S1130D508A8D9B8DE817F907B1F794C0C2017DDB3A
S1130D60863068F08E010D5F1F4FC2014ADBF80127
S1130D7081938F018C8D9D8DE817F907B1F78C81D4
S1130D80843009F088C08D8190E0982F88272E81C7
S1130D90822BF3019187808764E670E00E949413AC
S1130DA01B01220C331C220C331C260E371E3386E7
S1130DB0228671C0F3E0DF1241C08E8D8330F9F4D6
S1130DC0C2014BDB8530D0F18E010D5F1F4FC20194
S1130DD018DBF80181938F018A8D9B8DE817F90741
S1130DE0B1F7BE016D5E7F4FCE01019638DA8E8970
S1130DF09F89F30197878687C12CD12C1FC0FE8D54
S1130E00F630E1F4C20129DB863068F08E010D5F13
S1130E101F4FC201F6DAF80181938F018C8D9D8DED
S1130E20E817F907B1F78D8190E0982F88272E8174
S1130E30822BF301918B808BC12CD12C8CE291E01D
S1130E400E947B11870145CEF301048115810A15A7
S1130E501B05D1F15801CC24C3947ECE833009F410
S1130E6049C00F2EF3E0DF2EF02D1DCFDD24D394E7
S1130E7045C0FE8DF63011F742CF86E08E8FC12C2F
S1130E80D12CDCCF93E09E8FC12CD12CD7CFEE8D0B
S1130E90E630A1F663CFC12CD12CD0CFC701DDDA67
S1130EA0873008F03CCD5CCDC701D7DA59CDC701F6
S1130EB0D4DA652C742CC6CDC701CFDA873008F09C
S1130EC096CD692C742CBECD0F2EF5E0CF2EF02DCF
S1130ED043CE833009F4F1CEDD24D394E4CE8330C1
S1130EE009F0E1CE1FCFF1E0DF1609F408CF86E068
S1130EF08E8F1ACF0F2EF3E0DF2EF02D92E0D9164D
S1130F0009F419CFE3E0EE8F55CF833009F413CF02
S1130F10D92CC9CE8091A4019091A50111CA08953C
S1130F208091A6019091A7010BCA089580EE84BB1D
S1130F308FEF85BB10BCE4E7F1E0989B05C080818E
S1130F4080688083AD9A05C080818F778083AD9857
S1130F50AE98999B04C081818160818303C08181A3
S1130F608E7F81839A9B04C081818260818303C0C8
S1130F7081818D7F81839B9B04C081818460818377
S1130F80DCCF81818B7F8183D8CFCF93DF9388E0BF
S1130F9090E0A8DAEC0177DAD093A901C093A80114
S1130FA086E090E0F6DBEC01E4DB40E0BE018091FA
S1130FB0A8019091A9018DDA86E090E06DDBEC0147
S1130FC05BDB41E0BE018091A8019091A90181DA27
S1130FD060E08091A8019091A9019ADA61E0809182
S1130FE0A8019091A90194DADF91CF910895CF924D
S1130FF0DF92EF92FF920F93CF93DF93F8948FEFEA
S1131000809364008093650080936100889A82B91C
S113101013B887BB88BBB9DF4AE857E060E080912A
S1131020A8019091A90186DA40E957E061E0809136
S1131030A8019091A9017EDA88E890E07ED96C013C
S11310406091A8017091A90140E052D988E890E02C
S113105074D9EC016091A8017091A90141E048D9CB
S1131060E4EAF1E0D182C082D383C28378949FE022
S113107088E10FB6F894A89581BD0FBE91BDE12C0F
S1131080F12C02E0960140EF50E068E171E08FEC52
S113109098E0D5D69E0140EF50E06EE171E089E121
S11310A094E0CDD620E030E040EF50E064E271E01F
S11310B086E997E0C4D6C1D780E090E0DF91CF9174
S11310C00F91FF90EF90DF90CF900895AB014250C5
S11310D0510921E04330510508F420E0FC01E60FFA
S11310E0F71F8081882309F43FC0E4E7F1E081E041
S11310F090E0062E02C0880F991F0A94E2F79081AF
S1131100892B8083222361F028B381E090E0062EAE
S113111002C0880F991F0A94E2F78095822388BB46
S11311206230710539F41092360110925301109215
S1131130520108956330710551F481E080933601C2
S113114081E090E0909353018093520108956430BC
S1131150710521F582E08093360182E090E090935E
S11311605301809352010895E4E7F1E081E090E0B7
S1131170062E02C0880F991F0A94E2F78095908189
S113118089238083222351F028B381E090E002C0B8
S1131190880F991F6A95E2F7822B88BB0895CF9335
S11311A0DF93CDB7DEB72A970FB6F894DEBF0FBE34
S11311B0CDBF7C011092740184EF91E090934D01B6
S11311C080934C01B12CCC24C3942E018CE0480EA6
S11311D0511C05E610E0DD24DA947D2C312C0F2E11
S11311E0F5E02F2EF02D4E0199E0890E911C6894A4
S11311F0662462F8B11043C0C7012FD9823008F4C5
S113120003C1F801D082C701FCD88983F801108298
S1131210D082C701F6D88A83F8011082898181308F
S113122069F0C0923701C3B8ECE4F1E0828593859C
S1131230019693878287C7011BD913B88A818130AD
S113124019F1843009F448C0853009F46DC0803147
S113125009F4A0C02C2D4C2D6EE771E0CE0101964F
S11312600E941F0145E050E06EE771E0C7018DD890
S1131270C092370163B8C701FBD813B8C5C0F1E009
S1131280BF12C2C0AF1225C0C701E7D8863008F428
S1131290AEC0CE0103965C01F8017082C701B1D8DB
S11312A0F50181935F01F8011082A814B904A1F734
S11312B044E751E06DE971E0CE0101960E9483009C
S11312C047E050E06DE971E0C7015FD8AC2CB32C66
S11312D09BC0F4E0AF1225C0C701BFD8863008F424
S11312E089C0CE0103965C01F8017082C70189D8D8
S11312F0F50181935F01F8011082A814B904A1F7E4
S11313004CE451E06EE871E0CE0101960E94A20027
S113131047E050E06EE871E0C70137D8A62CB32C43
S113132073C0F5E0AF1233C0C70197D8863008F414
S113133064C0CE0103965C01F8017082C70161D8D4
S1131340F50181935F01F8011082A814B904A1F793
S113135065E971E0CE0101960E94C300E5E9F1E080
S1131360628170E0762F66278381682BDB01A85C9D
S1131370BE4F84818C9388E391E0A8DE48E050E07E
S113138065E971E0C70101D8A22CB32C3DC0F0E19E
S1131390AF123AC0C70161D8893090F1CE010396EB
S11313A05C01F8017082C7012CD8F50181935F01BB
S11313B0F8011082A414B504A1F74CE451E063E8E9
S11313C071E0CE0101960E94DC0066E771E0CE0177
S11313D001960E94060148E050E066E771E0C7010B
S11313E00E94C5016894AA24A4F8B32C0DC0AC2CA7
S11313F0BC2C0AC0A62CBC2C07C0A22CBC2C04C03C
S11314006894AA24A4F8BC2C809160019091610195
S1131410019709F0EFCEA895109261011092600136
S1131420E9CE0895CF93DF93EC012FD68091AA01E2
S11314309091AB01892B31F48FEA91E09093AB0149
S11314408093AA012091AC013091AD01CE01820FAD
S1131450931F8F3C47E0940770F42817390770F402
S1131460C091AA01D091AB01C20FD31F9093AD01DB
S11314708093AC0105C0C0E0D0E002C0C0E0D0E081
S1131480C1D6CE01DF91CF9108950895FC01039652
S1131490928381832FEF3FEF348323839683858365
S11314A09087878310820895FC0111861086089521
S11314B0CF93DF939C01FB01DC011196CD91DC916C
S11314C01297D383C2838C819D81958384838C817D
S11314D09D81DC0113967C936E9312977D836C83BC
S11314E031872087F90180818F5F8083DF91CF91DD
S11314F00895CF93DF93EB01488159814F3F2FEF3C
S1131500520721F4FC01A781B0850DC0DC011396BC
S113151001C0DF011296ED91FC9113972081318176
S113152042175307B0F71296ED91FC911397FB8382
S1131530EA83D583C483BD83AC831396DC93CE93B3
S1131540129799878887FC0120812F5F2083DF9180
S1131550CF910895CF93DF93FC01A085B185C2811B
S1131560D381848195819D838C83C481D58182813B
S113157093819B838A831196CD91DC911297CE1728
S1131580DF0731F48C819D8112969C938E93119781
S1131590118610868C9181508C93DF91CF910895A0
S11315A031E1FC013083319722E220833197A3E3B8
S11315B0A08331976083319770833197108231977C
S11315C060E8608331971082319762E060833197DD
S11315D063E06083319764E06083319765E0608302
S11315E0319766E06083319767E06083319768E004
S11315F06083319769E06083319760E1608331975C
S11316003083319732E13083319733E1308331973E
S113161034E13083319735E13083319736E13083DB
S1131620319737E13083319738E13083319739E1AD
S11316303083319730E23083319731E23083319710
S11316402083319723E2208331974083319750835D
S1131650319726E22083319727E22083319728E2CD
S11316602083319729E22083319720E32083319727
S113167021E32083869708951BBC89EF8ABD8BE004
S11316808EBD87B7806187BFA091E209B091E3095D
S1131690CD91CDBFDD91DEBFFF91EF91DF91CF9171
S11316A0BF91AF919F918F917F916F915F914F9176
S11316B03F912F911F910F91FF90EF90DF90CF906A
S11316C0BF90AF909F908F907F906F905F904F905E
S11316D03F902F901F900F900FBE0F90089581E0C0
S11316E008950F920FB6F8940F921F9211242F921F
S11316F03F924F925F926F927F928F929F92AF929E
S1131700BF92CF92DF92EF92FF920F931F932F938A
S11317103F934F935F936F937F938F939F93AF9375
S1131720BF93CF93DF93EF93FF93A091E209B0911E
S1131730E3090DB60D920EB60D9224D6A091E209DE
S1131740B091E309CD91CDBFDD91DEBFFF91EF9163
S1131750DF91CF91BF91AF919F918F917F916F91C5
S11317605F914F913F912F911F910F91FF90EF90B7
S1131770DF90CF90BF90AF909F908F907F906F90AD
S11317805F904F903F902F901F900F900FBE0F903F
S113179008950F920FB6F8940F921F9211242F926E
S11317A03F924F925F926F927F928F929F92AF92ED
S11317B0BF92CF92DF92EF92FF920F931F932F93DA
S11317C03F934F935F936F937F938F939F93AF93C5
S11317D0BF93CF93DF93EF93FF93A091E209B0916E
S11317E0E3090DB60D920EB60D9255D48111CAD5EA
S11317F0A091E209B091E309CD91CDBFDD91DEBFA7
S1131800FF91EF91DF91CF91BF91AF919F918F9114
S11318107F916F915F914F913F912F911F910F9104
S1131820FF90EF90DF90CF90BF90AF909F908F90FC
S11318307F906F905F904F903F902F901F900F90EC
S11318400FBE0F900895A5DF18950F931F93CF93A4
S1131850DF93EC01042F1A8D8C8D81110BC08881CC
S11318609981892B09F041C08A819B810BD71B8206
S11318701A8242C0411117C0482F50E08C819D81CB
S11318807AD72C8D8C819D81820F911D9D838C83B1
S11318902A813B818217930750F1888199819D8326
S11318A08C8380E029C0482F50E08E819F8163D7CC
S11318B08C8D90E09195819591092E813F81280F1F
S11318C0391F3F832E83488159812417350730F40B
S11318D02A813B81820F931F9F838E83023049F4B8
S11318E0112349F0115080E007C080E005C080E07A
S11318F003C080E001C080E01F5F1A8FDF91CF91A9
S11319001F910F910895FC01448D4423A1F050E0F0
S113191026813781240F351F378326838281938163
S11319202817390720F08081918197838683CB0122
S11319306681778120C70895EF92FF920F931F93DA
S1131940CF938C010FB6F8940F92FC01C68D1C1630
S11319509CF48189811106C00FC0F801918991110D
S113196005C00AC07801F1E1EF0EF11CC7019BD557
S1131970811122D6C15089F78FEFF801868F0F901D
S11319800FBE0FB6F8940F92C58D1C169CF480857B
S1131990811106C00FC0F8019085911105C00AC0DD
S11319A07801F8E0EF0EF11CC7017DD5811104D652
S11319B0C15089F78FEFF801858F0F900FBECF913B
S11319C01F910F91FF90EF900895CF93DF93EC0157
S11319D00FB6F8940F92488159812C8D30E07B8D9D
S11319E0729FC001739F900D1124FA01E80FF91F33
S11319F0FB83EA831A8E5D834C83821B930B840FD3
S1131A00951F9F838E838FEF8D8F8E8F61110AC0F8
S1131A108885882369F0CE01089645D5882341F04E
S1131A2060DE06C0CE01089631DDCE0141962EDD82
S1131A300F900FBE81E0DF91CF9108950F931F9314
S1131A40CF93DF93082F162F6623B1F0869FC00132
S1131A5011244F96E7DCEC01009739F413C00B8F87
S1131A601C8F61E0CE01B1DF0DC04F96998388834E
S1131A70F6CFD983C883F3CF8FE190E0D3DCEC01B8
S1131A80892BB9F7CE01DF91CF911F910F91089562
S1131A909F92AF92BF92CF92DF92EF92FF920F93F9
S1131AA01F93CF93DF9300D000D01F92CDB7DEB742
S1131AB08C016B015D834C83A22EB12C99249394E9
S1131AC07C0188E0E80EF11C0FB6F8940F92F8013F
S1131AD0328D938D391718F0F2E0AF1215C04A2DEC
S1131AE0B601C801B2DEF8019189992339F0C80121
S1131AF04196D9D4882321F0F4DD02C08111F1DDAF
S1131B000F900FBE81E045C0EC81FD81EF2B21F4E5
S1131B100F900FBE80E03DC0B11004C0CE0101960D
S1131B2008D5B92C0F900FBEB0D20FB6F8940F920F
S1131B30F801858D8F3F09F4158EF801868D8F3F4E
S1131B4009F4168E0F900FBEBE016C5F7F4FCE015D
S1131B500196FAD4811119C00FB6F8940F92F801C6
S1131B60928D0F900FBE838D98130BC06C817D8175
S1131B70C70188D4C801E0DE45D38111A5CFB1DD0A
S1131B80A3CFC801D9DE3ED39FCFC801D5DE3AD357
S1131B9080E00F900F900F900F900F90DF91CF91F6
S1131BA01F910F91FF90EF90DF90CF90BF90AF9077
S1131BB09F900895CF93DF93482F60E081E03EDF4C
S1131BC0EC01009759F01B821A82198218821E8236
S1131BD020E040E050E060E070E05ADFCE01DF91A9
S1131BE0CF9108958F929F92AF92BF92CF92DF923E
S1131BF0EF92FF920F931F93CF93DF9300D000D007
S1131C001F92CDB7DEB78C015B015D834C83822EBE
S1131C10E12C992493946C0181E1C80ED11C0FB678
S1131C20F8940F92F801F28CFF2061F1C680D780FE
S1131C30B501C80168DE811016C0FA94F801F28E6D
S1131C4080819181892B21F45DD5F801938382836E
S1131C50F8018085882391F0C801089624D488234C
S1131C6069F03FDD0BC0F801D782C68281898823E1
S1131C7029F0C801419617D4811133DD0F900FBEAE
S1131C8081E058C04C815D81452B21F40F900FBE3B
S1131C9080E050C0E11004C0CE0101964AD4E92C82
S1131CA00F900FBEF2D10FB6F8940F92F801858D04
S1131CB08F3F09F4158EF801968D9F3F09F4168E17
S1131CC00F900FBEBE016C5F7F4FCE0101963CD4D6
S1131CD0811124C00FB6F8940F92F801828D0F90F1
S1131CE00FBE811117C080819181892B41F40FB6F9
S1131CF0F8940F928281938163D40F900FBE6C810C
S1131D007D81C601BFD3C80117DE7CD2811187CF84
S1131D10E8DC85CFC80110DE75D281CFC8010CDEA6
S1131D2071D20FB6F8940F92F801828D0F900FBE06
S1131D30811175CF0F900F900F900F900F90DF913E
S1131D40CF911F910F91FF90EF90DF90CF90BF90B4
S1131D50AF909F908F900895E091AA09F091AB09FC
S1131D608081811107C08FEF9FEF90938209809348
S1131D7081090895E091AA09F091AB090580F681E3
S1131D80E02D0680F781E02D828193819093820972
S1131D90809381090895FF920F931F93CF93DF934C
S1131DA0EC01F62E0091890910918A098091E209CB
S1131DB09091E3090296CEDBCF3F8FEFD80761F411
S1131DC0FF2051F06091E2097091E3096E5F7F4F4B
S1131DD08CE899E06DDB2DC0C00FD11FE091E209C2
S1131DE0F091E309D383C283C017D10760F46091F3
S1131DF0E2097091E3098091A8099091A9096E5FA5
S1131E007F4F77DB16C06091E2097091E3098091FE
S1131E10AA099091AB096E5F7F4F6BDB80918109BA
S1131E2090918209C817D90720F4D0938209C093EE
S1131E308109DF91CF911F910F91FF9008954F92E7
S1131E405F926F927F928F929F92AF92BF92CF9246
S1131E50DF92EF92FF920F93CF93DF934C016B01CC
S1131E605A012901CA01DEDA3C01892B09F4D4C0E4
S1131E7088E290E0D7DAEC01892B71F0788E6F8AD2
S1131E8081E0A81AB1086A0C7B1CD6018C91898F59
S1131E908C91811104C017C0C301F7DABDC0AE0133
S1131EA0465E5F4FF6013196B8E0CB0ED11CCF01F0
S1131EB02191DA012D93AD01DC018C91882319F075
S1131EC0EC15FD05A1F718A2043008F003E00E8B11
S1131ED009A31AA26E01B2E0CB0ED11CC601E4DA4A
S1131EE0CE010C96E1DAD987C88784E090E0801BA4
S1131EF091099D878C87DB8BCA8B1BA21CA21DA218
S1131F001EA21FA2A201B401C3014ADB99838883E4
S1131F10E114F10419F0F701D183C0830FB6F894EA
S1131F200F9280918B098F5F80938B098091E209D6
S1131F309091E309892B89F5D093E309C093E209D1
S1131F4080918B09813009F038C08EEB99E09EDADC
S1131F5087EC99E09BDA80ED99E098DA89ED99E0D5
S1131F6095DA85EB99E092DA8CEA99E08FDA8FE9D9
S1131F7099E08CDA86E999E089DA8CE899E086DAE6
S1131F8085EB99E09093AB098093AA098CEA99E0D8
S1131F909093A9098093A80910C0809187098111A1
S1131FA00CC0E091E209F091E30996898E898917C2
S1131FB020F0D093E309C093E209809183098F5FF5
S1131FC0809383098E8990918809981710F48093DF
S1131FD0880990E09C01220F331F220F331F220F28
S1131FE0331F820F931FB6018254964F61DA0F900C
S1131FF00FBE80918709882359F0E091E209F0919E
S1132000E30996898E89981728F46BDB81E005C073
S113201081E003C081E001C08FEFDF91CF910F9188
S1132020FF90EF90DF90CF90BF90AF909F908F90F4
S11320307F906F905F904F900895EF92FF920F936F
S11320400F2EFFE7EF2EF9E0FF2EF02D00E020E049
S113205030E045E550E06AE271E08BE891E1EFDEC3
S1132060813079F4F8948FEF9FEF909382098093F5
S1132070810981E08093870910928A091092890965
S1132080FBDA0F91FF90EF90089580917E098F5FA6
S113209080937E090895CF92DF92EF92FF920F937F
S11320A01F93CF93DF9380917E09811195C0E090B7
S11320B08909F0908A098FEFE81AF80AF0928A09E0
S11320C0E0928909E114F104B1F48091AA09909194
S11320D0AB092091A8093091A9093093AB09209349
S11320E0AA099093A9098093A809809184098F5F14
S11320F08093840931DE8091810990918209E816E8
S1132100F90610F4D12C50C0D12CCC24C394E09106
S1132110AA09F091AB099081911107C08FEF9FEF4D
S113212090938209809381093FC0E091AA09F091BC
S1132130AB090580F681E02DC681D7812A813B81D8
S1132140E216F30628F430938209209381092CC007
S11321508E010E5F1F4FC801FDD98C899D89892B83
S113216019F0CE010C96F6D92E8980918809821730
S113217010F42093880930E0C901880F991F880F53
S1132180991F880F991F820F931FB8018254964F8D
S11321908FD9E091E209F091E3099E898689981725
S11321A008F4B5CFDC2CB3CFE091E209F091E30958
S11321B0868990E0FC01EE0FFF1FEE0FFF1FEE0F6C
S11321C0FF1F8E0F9F1FFC01E254F64F8081823067
S11321D048F0DD24D39406C0809186098F5F8093F4
S11321E08609D12C80918509882311F0DD24D394AC
S11321F08D2DDF91CF911F910F91FF90EF90DF9084
S1132200CF900895DF92EF92FF920F931F93CF9395
S1132210DF930FB6F8940F9280917E0981508093DA
S11322207E0980917E09811159C080918B098111A9
S113223030C057C0D7011596ED91FC911697C68111
S1132240D781CE010C9686D98E010E5F1F4FC8012F
S113225081D92E8980918809821710F420938809E6
S113226030E0C901880F991F880F991F880F991FA3
S1132270820F931FB8018254964F1AD9E091E20954
S1132280F091E3099E898689981768F0D0928509B0
S11322900AC0C0E0D0E00F2EFFE9EF2EF9E0FF2ED8
S11322A0F02DDD24D394F70180818111C3CFCD2B90
S11322B009F052DDC0918609CC2349F0D1E0EBDE70
S11322C08111D0938509C150D1F71092860980916C
S11322D08509882329F005DA81E003C080E001C084
S11322E080E00F900FBEDF91CF911F910F91FF906F
S11322F0EF90DF900895CF93DF93EC01892B39F0B1
S1132300C4DE60E0CE0147DD7DDF811101C0E9D983
S1132310DF91CF91089506E919E00F2EFEEBEF2E21
S1132320F9E0FF2EF02D24C0B0DED801CC916ADF95
S1132330CC23F1F00FB6F8940F92D8011596ED91D5
S1132340FC911697C681D781CE01029603D980915C
S11323508B09815080938B098091950981508093DA
S113236095090F900FBE8F89988D8FD8CE018DD887
S1132370809195098111D8CFF70180818230C0F313
S1132380B0D9F6CF80917E09882321F081E0809333
S11323908509089510928509A091E209B091E30995
S11323A0E091E209F091E3092D913C918789908DA8
S11323B08217930758F06091E2097091E3098091C4
S11323C0E2099091E309675E7F4F2BD82091880939
S11323D0822F90E0FC01EE0FFF1FEE0FFF1FEE0FA8
S11323E0FF1FE80FF91FE254F64F3081311111C07D
S11323F02150822F90E0FC01EE0FFF1FEE0FFF1F14
S1132400EE0FFF1FE80FF91FE254F64F308133231C
S113241079F3AC01440F551F440F551F440F551F4A
S1132420480F591FDA01A254B64F1196ED91FC9151
S113243012970280F381E02D1296FC93EE9311978C
S11324404F53564FE417F50729F442815381FD0198
S113245052834183FC01EE0FFF1FEE0FFF1FEE0FAF
S1132460FF1F8E0F9F1FFC01E254F64F0180F28183
S1132470E02D868197819093E3098093E20920936C
S113248088090895CF93DF93EB012091E2093091FD
S1132490E309B901645F7F4F2CD861E0CE017BDC96
S11324A0DF91CF9108950F931F93CF93DF93DC01B6
S11324B01596ED91FC911697C681D7818E01045F24
S11324C01F4FC80147D880917E0981111BC00A5053
S11324D01109C8013FD82E8980918809821710F408
S11324E02093880930E0C901880F991F880F991F2C
S11324F0880F991F820F931FB8018254964F0E9430
S1132500580A05C0B8018FE999E00E94580AE09181
S1132510E209F091E3099E898689891720F481E014
S11325208093850901C080E0DF91CF911F910F91C5
S1132530089520918409FC01208320918909309118
S11325408A093283218308950FB6F8940F9240913B
S1132550890950918A09DB012D913C912F3FBFEFEE
S11325603B0711F1E0918409DC01FC91FE1739F07D
S11325701196ED91FC9112974E175F07B8F4DC01A8
S11325801196ED91FC911297DA01AE1BBF0BA217C5
S1132590B30770F4DB01E41BF50B2E0F3F1F2D93E3
S11325A03C93C7DF80E005C080E003C081E001C048
S11325B081E00F900FBE089581E08093850908950E
S11325C00F931F93CF93DF93FC01892B09F455C01C
S11325D02689A091E209B091E30956968C912817B7
S11325E008F04BC084859585992364F0A091E20995
S11325F0B091E30956963C9184E090E0831B9109E5
S11326009587848730E0C901880F991F880F991F27
S1132610880F991F280F391F2254364F82859385BE
S11326208217930719F58F01EF012296CE010E94BC
S1132630AA0AE091E209F091E3092689F801268BC0
S113264080918809821710F42093880930E0C90129
S1132650880F991F880F991F880F991F820F931F46
S1132660BE018254964F0E94580A07C0A091E20905
S1132670B091E30956968C91868BDF91CF911F918F
S11326800F9108950F931F93CF93DF93FC01892B30
S113269079F182A1815082A3268991A1291751F150
S11326A081112AC0EF018F010E5F1F4FC8010E94E4
S11326B0AA0A29A12E8B44E050E0421B51095D87F0
S11326C04C8780918809821710F42093880930E0A0
S11326D0C901880F991F880F991F880F991F820FAE
S11326E0931FB8018254964F0E94580A81E005C096
S11326F080E003C080E001C080E0DF91CF911F91B2
S11327000F9108958091E2099091E309892B39F0A2
S1132710E091E209F091E30982A18F5F82A38091A5
S1132720E2099091E309089597FB072E16F40094AB
S113273006D077FD08D00BD007FC05D03EF4909569
S113274081959F4F0895709561957F4F0895AA1BB9
S1132750BB1B51E107C0AA1FBB1FA617B70710F088
S1132760A61BB70B881F991F5A95A9F780959095BA
S1132770BC01CD010895FB01DC0102C001900D9262
S10F278041505040D8F70895F894FFCF62
S113278C000000001F031E039E03720300000000E0
S113279CA0031E031704EB035461736B31005461E3
S11327AC736B32005461736B330049444C45000025
S9030000FC
